{
  "contractName": "TokenSale",
  "abi": [
    {
      "inputs": [
        {
          "internalType": "address",
          "name": "withdrawalWallet_",
          "type": "address"
        },
        {
          "internalType": "uint256",
          "name": "rate_",
          "type": "uint256"
        },
        {
          "internalType": "address",
          "name": "token_",
          "type": "address"
        }
      ],
      "stateMutability": "nonpayable",
      "type": "constructor"
    },
    {
      "anonymous": false,
      "inputs": [
        {
          "indexed": false,
          "internalType": "address",
          "name": "recipient",
          "type": "address"
        },
        {
          "indexed": false,
          "internalType": "uint256",
          "name": "amount",
          "type": "uint256"
        }
      ],
      "name": "BNBWithdrawn",
      "type": "event"
    },
    {
      "anonymous": false,
      "inputs": [
        {
          "indexed": true,
          "internalType": "address",
          "name": "previousOwner",
          "type": "address"
        },
        {
          "indexed": true,
          "internalType": "address",
          "name": "newOwner",
          "type": "address"
        }
      ],
      "name": "OwnershipTransferred",
      "type": "event"
    },
    {
      "anonymous": false,
      "inputs": [
        {
          "indexed": false,
          "internalType": "uint256",
          "name": "newRate",
          "type": "uint256"
        }
      ],
      "name": "RateChanged",
      "type": "event"
    },
    {
      "anonymous": false,
      "inputs": [
        {
          "indexed": false,
          "internalType": "uint256",
          "name": "newEndTime",
          "type": "uint256"
        }
      ],
      "name": "TokenSaleExtended",
      "type": "event"
    },
    {
      "anonymous": false,
      "inputs": [
        {
          "indexed": false,
          "internalType": "uint256",
          "name": "finalTime",
          "type": "uint256"
        }
      ],
      "name": "TokenSaleFinalized",
      "type": "event"
    },
    {
      "anonymous": false,
      "inputs": [
        {
          "indexed": false,
          "internalType": "uint256",
          "name": "startTime",
          "type": "uint256"
        },
        {
          "indexed": false,
          "internalType": "uint256",
          "name": "endTime",
          "type": "uint256"
        }
      ],
      "name": "TokenSaleStarted",
      "type": "event"
    },
    {
      "anonymous": false,
      "inputs": [
        {
          "indexed": false,
          "internalType": "uint256",
          "name": "amount",
          "type": "uint256"
        },
        {
          "indexed": false,
          "internalType": "address",
          "name": "buyer",
          "type": "address"
        }
      ],
      "name": "TokenSold",
      "type": "event"
    },
    {
      "inputs": [],
      "name": "owner",
      "outputs": [
        {
          "internalType": "address",
          "name": "",
          "type": "address"
        }
      ],
      "stateMutability": "view",
      "type": "function",
      "constant": true
    },
    {
      "inputs": [],
      "name": "renounceOwnership",
      "outputs": [],
      "stateMutability": "nonpayable",
      "type": "function"
    },
    {
      "inputs": [
        {
          "internalType": "address",
          "name": "newOwner",
          "type": "address"
        }
      ],
      "name": "transferOwnership",
      "outputs": [],
      "stateMutability": "nonpayable",
      "type": "function"
    },
    {
      "stateMutability": "payable",
      "type": "receive",
      "payable": true
    },
    {
      "inputs": [
        {
          "internalType": "uint256",
          "name": "rate_",
          "type": "uint256"
        }
      ],
      "name": "setRate",
      "outputs": [
        {
          "internalType": "bool",
          "name": "",
          "type": "bool"
        }
      ],
      "stateMutability": "nonpayable",
      "type": "function"
    },
    {
      "inputs": [
        {
          "internalType": "uint256",
          "name": "_daysFromStart",
          "type": "uint256"
        }
      ],
      "name": "beginTokenSale",
      "outputs": [
        {
          "internalType": "bool",
          "name": "",
          "type": "bool"
        }
      ],
      "stateMutability": "nonpayable",
      "type": "function"
    },
    {
      "inputs": [
        {
          "internalType": "uint256",
          "name": "extension",
          "type": "uint256"
        }
      ],
      "name": "extendTokenSale",
      "outputs": [
        {
          "internalType": "bool",
          "name": "",
          "type": "bool"
        }
      ],
      "stateMutability": "nonpayable",
      "type": "function"
    },
    {
      "inputs": [],
      "name": "finalizeTokenSale",
      "outputs": [
        {
          "internalType": "bool",
          "name": "",
          "type": "bool"
        }
      ],
      "stateMutability": "nonpayable",
      "type": "function"
    },
    {
      "inputs": [],
      "name": "getRemainingDays",
      "outputs": [
        {
          "internalType": "uint256",
          "name": "",
          "type": "uint256"
        }
      ],
      "stateMutability": "view",
      "type": "function",
      "constant": true
    },
    {
      "inputs": [],
      "name": "buyXOX",
      "outputs": [],
      "stateMutability": "payable",
      "type": "function",
      "payable": true
    },
    {
      "inputs": [
        {
          "internalType": "address",
          "name": "withdrawalWallet_",
          "type": "address"
        }
      ],
      "name": "setWithdrawalWallet",
      "outputs": [
        {
          "internalType": "bool",
          "name": "",
          "type": "bool"
        }
      ],
      "stateMutability": "nonpayable",
      "type": "function"
    },
    {
      "inputs": [],
      "name": "getRate",
      "outputs": [
        {
          "internalType": "uint256",
          "name": "",
          "type": "uint256"
        }
      ],
      "stateMutability": "view",
      "type": "function",
      "constant": true
    },
    {
      "inputs": [],
      "name": "getStartTime",
      "outputs": [
        {
          "internalType": "uint256",
          "name": "",
          "type": "uint256"
        }
      ],
      "stateMutability": "view",
      "type": "function",
      "constant": true
    },
    {
      "inputs": [],
      "name": "getEndTime",
      "outputs": [
        {
          "internalType": "uint256",
          "name": "",
          "type": "uint256"
        }
      ],
      "stateMutability": "view",
      "type": "function",
      "constant": true
    },
    {
      "inputs": [],
      "name": "withdrawBNB",
      "outputs": [
        {
          "internalType": "bool",
          "name": "",
          "type": "bool"
        }
      ],
      "stateMutability": "nonpayable",
      "type": "function"
    }
  ],
  "bytecode": "0x60806040526000600560006101000a81548160ff0219169083151502179055506000600560016101000a81548160ff0219169083151502179055503480156200004757600080fd5b50604051620020df380380620020df83398181016040528101906200006d919062000219565b6200008d620000816200011f60201b60201c565b6200012760201b60201c565b82600160006101000a81548173ffffffffffffffffffffffffffffffffffffffff021916908373ffffffffffffffffffffffffffffffffffffffff1602179055508160028190555080600560026101000a81548173ffffffffffffffffffffffffffffffffffffffff021916908373ffffffffffffffffffffffffffffffffffffffff160217905550505050620002e1565b600033905090565b60008060009054906101000a900473ffffffffffffffffffffffffffffffffffffffff169050816000806101000a81548173ffffffffffffffffffffffffffffffffffffffff021916908373ffffffffffffffffffffffffffffffffffffffff1602179055508173ffffffffffffffffffffffffffffffffffffffff168173ffffffffffffffffffffffffffffffffffffffff167f8be0079c531659141344cd1fd0a4f28419497f9722a3daafe3b4186f6b6457e060405160405180910390a35050565b600081519050620001fc81620002ad565b92915050565b6000815190506200021381620002c7565b92915050565b6000806000606084860312156200022f57600080fd5b60006200023f86828701620001eb565b9350506020620002528682870162000202565b92505060406200026586828701620001eb565b9150509250925092565b60006200027c8262000283565b9050919050565b600073ffffffffffffffffffffffffffffffffffffffff82169050919050565b6000819050919050565b620002b8816200026f565b8114620002c457600080fd5b50565b620002d281620002a3565b8114620002de57600080fd5b50565b611dee80620002f16000396000f3fe6080604052600436106100e05760003560e01c8063715018a61161007f5780638b3c1718116100595780638b3c1718146102a35780638da5cb5b146102e0578063c828371e1461030b578063f2fde38b14610336576100ef565b8063715018a61461022457806375796f761461023b5780637693488b14610278576100ef565b806334fcf437116100bb57806334fcf43714610187578063439f5ac2146101c457806345ba0a9b146101ef578063679aefce146101f9576100ef565b80620c7019146100f457806310efa98e1461011f5780631d111d131461015c576100ef565b366100ef576100ed61035f565b005b600080fd5b34801561010057600080fd5b506101096106af565b60405161011691906117bf565b60405180910390f35b34801561012b57600080fd5b5061014660048036038101906101419190611342565b6106fd565b6040516101539190611604565b60405180910390f35b34801561016857600080fd5b50610171610848565b60405161017e9190611604565b60405180910390f35b34801561019357600080fd5b506101ae60048036038101906101a99190611342565b61098c565b6040516101bb9190611604565b60405180910390f35b3480156101d057600080fd5b506101d9610a35565b6040516101e691906117bf565b60405180910390f35b6101f761035f565b005b34801561020557600080fd5b5061020e610a3f565b60405161021b91906117bf565b60405180910390f35b34801561023057600080fd5b50610239610a49565b005b34801561024757600080fd5b50610262600480360381019061025d91906112f0565b610ad1565b60405161026f9190611604565b60405180910390f35b34801561028457600080fd5b5061028d610b99565b60405161029a9190611604565b60405180910390f35b3480156102af57600080fd5b506102ca60048036038101906102c59190611342565b610e95565b6040516102d79190611604565b60405180910390f35b3480156102ec57600080fd5b506102f5610f3e565b6040516103029190611597565b60405180910390f35b34801561031757600080fd5b50610320610f67565b60405161032d91906117bf565b60405180910390f35b34801561034257600080fd5b5061035d600480360381019061035891906112f0565b610f71565b005b6003544210156103a4576040517f08c379a000000000000000000000000000000000000000000000000000000000815260040161039b9061173f565b60405180910390fd5b60045442106103e8576040517f08c379a00000000000000000000000000000000000000000000000000000000081526004016103df9061161f565b60405180910390fd5b600560019054906101000a900460ff1615610438576040517f08c379a000000000000000000000000000000000000000000000000000000000815260040161042f906116bf565b60405180910390fd5b6000670de0b6b3a76400003461044e91906118c4565b90506000600254826104609190611893565b905060006064600a8361047391906118c4565b61047d9190611893565b90506000818361048d919061183d565b905080600560029054906101000a900473ffffffffffffffffffffffffffffffffffffffff1673ffffffffffffffffffffffffffffffffffffffff166370a08231306040518263ffffffff1660e01b81526004016104eb9190611597565b60206040518083038186803b15801561050357600080fd5b505afa158015610517573d6000803e3d6000fd5b505050506040513d601f19601f8201168201806040525081019061053b919061136b565b101561057c576040517f08c379a00000000000000000000000000000000000000000000000000000000081526004016105739061175f565b60405180910390fd5b6000600560029054906101000a900473ffffffffffffffffffffffffffffffffffffffff1673ffffffffffffffffffffffffffffffffffffffff1663a9059cbb33846040518363ffffffff1660e01b81526004016105db9291906115db565b602060405180830381600087803b1580156105f557600080fd5b505af1158015610609573d6000803e3d6000fd5b505050506040513d601f19601f8201168201806040525081019061062d9190611319565b90508061066f576040517f08c379a00000000000000000000000000000000000000000000000000000000081526004016106669061165f565b60405180910390fd5b7f751f224aea8528cb3199d1615151d4b851c884ad39e72c306356520ec6d2cf9582336040516106a09291906117da565b60405180910390a15050505050565b6000600560019054906101000a900460ff16156106cf57600090506106fa565b60004290508060045411156106f457806004546106ec919061191e565b9150506106fa565b60009150505b90565b6000600160009054906101000a900473ffffffffffffffffffffffffffffffffffffffff1673ffffffffffffffffffffffffffffffffffffffff16610740611069565b73ffffffffffffffffffffffffffffffffffffffff1614610796576040517f08c379a000000000000000000000000000000000000000000000000000000000815260040161078d906116ff565b60405180910390fd5b600560019054906101000a900460ff16156107e6576040517f08c379a00000000000000000000000000000000000000000000000000000000081526004016107dd906116df565b60405180910390fd5b62015180826107f591906118c4565b42610800919061183d565b6004819055507f057ef55123d60d20f8e2ebda78fcfd24dfcad0647ca443a91e71941deb00bc9260045460405161083791906117bf565b60405180910390a160019050919050565b6000600160009054906101000a900473ffffffffffffffffffffffffffffffffffffffff1673ffffffffffffffffffffffffffffffffffffffff1661088b611069565b73ffffffffffffffffffffffffffffffffffffffff16146108e1576040517f08c379a00000000000000000000000000000000000000000000000000000000081526004016108d8906116ff565b60405180910390fd5b6000479050600160009054906101000a900473ffffffffffffffffffffffffffffffffffffffff1673ffffffffffffffffffffffffffffffffffffffff166108fc829081150290604051600060405180830381858888f1935050505015801561094e573d6000803e3d6000fd5b507f977cffdd1e736a78cafc6845d6dca2d64c79fb1f650a8bdec1a9b5046ea47d4533826040516109809291906115db565b60405180910390a15090565b6000600160009054906101000a900473ffffffffffffffffffffffffffffffffffffffff1673ffffffffffffffffffffffffffffffffffffffff166109cf611069565b73ffffffffffffffffffffffffffffffffffffffff1614610a25576040517f08c379a0000000000000000000000000000000000000000000000000000000008152600401610a1c906116ff565b60405180910390fd5b610a2e82611071565b9050919050565b6000600454905090565b6000600254905090565b610a51611069565b73ffffffffffffffffffffffffffffffffffffffff16610a6f610f3e565b73ffffffffffffffffffffffffffffffffffffffff1614610ac5576040517f08c379a0000000000000000000000000000000000000000000000000000000008152600401610abc9061171f565b60405180910390fd5b610acf60006110fe565b565b6000610adb611069565b73ffffffffffffffffffffffffffffffffffffffff16610af9610f3e565b73ffffffffffffffffffffffffffffffffffffffff1614610b4f576040517f08c379a0000000000000000000000000000000000000000000000000000000008152600401610b469061171f565b60405180910390fd5b81600160006101000a81548173ffffffffffffffffffffffffffffffffffffffff021916908373ffffffffffffffffffffffffffffffffffffffff16021790555060019050919050565b6000600160009054906101000a900473ffffffffffffffffffffffffffffffffffffffff1673ffffffffffffffffffffffffffffffffffffffff16610bdc611069565b73ffffffffffffffffffffffffffffffffffffffff1614610c32576040517f08c379a0000000000000000000000000000000000000000000000000000000008152600401610c29906116ff565b60405180910390fd5b600560019054906101000a900460ff1615610c82576040517f08c379a0000000000000000000000000000000000000000000000000000000008152600401610c799061179f565b60405180910390fd5b600560029054906101000a900473ffffffffffffffffffffffffffffffffffffffff1673ffffffffffffffffffffffffffffffffffffffff1663a9059cbb600160009054906101000a900473ffffffffffffffffffffffffffffffffffffffff16600560029054906101000a900473ffffffffffffffffffffffffffffffffffffffff1673ffffffffffffffffffffffffffffffffffffffff166370a08231306040518263ffffffff1660e01b8152600401610d3e9190611597565b60206040518083038186803b158015610d5657600080fd5b505afa158015610d6a573d6000803e3d6000fd5b505050506040513d601f19601f82011682018060405250810190610d8e919061136b565b6040518363ffffffff1660e01b8152600401610dab9291906115b2565b602060405180830381600087803b158015610dc557600080fd5b505af1158015610dd9573d6000803e3d6000fd5b505050506040513d601f19601f82011682018060405250810190610dfd9190611319565b610e3c576040517f08c379a0000000000000000000000000000000000000000000000000000000008152600401610e339061177f565b60405180910390fd5b6001600560016101000a81548160ff0219169083151502179055507f3d4bd2c362de1fb2fb5d7fbe732e27aba89ba2c9d8acd44346bf30b520eb0da242604051610e8691906117bf565b60405180910390a16001905090565b6000600160009054906101000a900473ffffffffffffffffffffffffffffffffffffffff1673ffffffffffffffffffffffffffffffffffffffff16610ed8611069565b73ffffffffffffffffffffffffffffffffffffffff1614610f2e576040517f08c379a0000000000000000000000000000000000000000000000000000000008152600401610f25906116ff565b60405180910390fd5b610f37826111c2565b9050919050565b60008060009054906101000a900473ffffffffffffffffffffffffffffffffffffffff16905090565b6000600354905090565b610f79611069565b73ffffffffffffffffffffffffffffffffffffffff16610f97610f3e565b73ffffffffffffffffffffffffffffffffffffffff1614610fed576040517f08c379a0000000000000000000000000000000000000000000000000000000008152600401610fe49061171f565b60405180910390fd5b600073ffffffffffffffffffffffffffffffffffffffff168173ffffffffffffffffffffffffffffffffffffffff16141561105d576040517f08c379a00000000000000000000000000000000000000000000000000000000081526004016110549061163f565b60405180910390fd5b611066816110fe565b50565b600033905090565b60008082116110b5576040517f08c379a00000000000000000000000000000000000000000000000000000000081526004016110ac9061169f565b60405180910390fd5b816002819055507f595a30f13a69b616c4d568e2a2b7875fdfe86e4300a049953c76ee278f8f3f106002546040516110ed91906117bf565b60405180910390a160019050919050565b60008060009054906101000a900473ffffffffffffffffffffffffffffffffffffffff169050816000806101000a81548173ffffffffffffffffffffffffffffffffffffffff021916908373ffffffffffffffffffffffffffffffffffffffff1602179055508173ffffffffffffffffffffffffffffffffffffffff168173ffffffffffffffffffffffffffffffffffffffff167f8be0079c531659141344cd1fd0a4f28419497f9722a3daafe3b4186f6b6457e060405160405180910390a35050565b6000600560009054906101000a900460ff1615611214576040517f08c379a000000000000000000000000000000000000000000000000000000000815260040161120b9061167f565b60405180910390fd5b42600381905550620151808261122a91906118c4565b42611235919061183d565b6004819055506001600560006101000a81548160ff0219169083151502179055507fe7a4dc9c36cc4f7a8a5166f25ebecb1543220b790b75b19ba25421da6b02cb3260035460045460405161128b929190611803565b60405180910390a160019050919050565b6000813590506112ab81611d73565b92915050565b6000815190506112c081611d8a565b92915050565b6000813590506112d581611da1565b92915050565b6000815190506112ea81611da1565b92915050565b60006020828403121561130257600080fd5b60006113108482850161129c565b91505092915050565b60006020828403121561132b57600080fd5b6000611339848285016112b1565b91505092915050565b60006020828403121561135457600080fd5b6000611362848285016112c6565b91505092915050565b60006020828403121561137d57600080fd5b600061138b848285016112db565b91505092915050565b61139d8161199a565b82525050565b6113ac81611952565b82525050565b6113bb81611964565b82525050565b60006113ce601b8361182c565b91506113d982611a2e565b602082019050919050565b60006113f160268361182c565b91506113fc82611a57565b604082019050919050565b6000611414601d8361182c565b915061141f82611aa6565b602082019050919050565b6000611437601f8361182c565b915061144282611acf565b602082019050919050565b600061145a60228361182c565b915061146582611af8565b604082019050919050565b600061147d60248361182c565b915061148882611b47565b604082019050919050565b60006114a0603b8361182c565b91506114ab82611b96565b604082019050919050565b60006114c3602f8361182c565b91506114ce82611be5565b604082019050919050565b60006114e660208361182c565b91506114f182611c34565b602082019050919050565b600061150960238361182c565b915061151482611c5d565b604082019050919050565b600061152c60208361182c565b915061153782611cac565b602082019050919050565b600061154f602a8361182c565b915061155a82611cd5565b604082019050919050565b6000611572602b8361182c565b915061157d82611d24565b604082019050919050565b61159181611990565b82525050565b60006020820190506115ac60008301846113a3565b92915050565b60006040820190506115c76000830185611394565b6115d46020830184611588565b9392505050565b60006040820190506115f060008301856113a3565b6115fd6020830184611588565b9392505050565b600060208201905061161960008301846113b2565b92915050565b60006020820190508181036000830152611638816113c1565b9050919050565b60006020820190508181036000830152611658816113e4565b9050919050565b6000602082019050818103600083015261167881611407565b9050919050565b600060208201905081810360008301526116988161142a565b9050919050565b600060208201905081810360008301526116b88161144d565b9050919050565b600060208201905081810360008301526116d881611470565b9050919050565b600060208201905081810360008301526116f881611493565b9050919050565b60006020820190508181036000830152611718816114b6565b9050919050565b60006020820190508181036000830152611738816114d9565b9050919050565b60006020820190508181036000830152611758816114fc565b9050919050565b600060208201905081810360008301526117788161151f565b9050919050565b6000602082019050818103600083015261179881611542565b9050919050565b600060208201905081810360008301526117b881611565565b9050919050565b60006020820190506117d46000830184611588565b92915050565b60006040820190506117ef6000830185611588565b6117fc60208301846113a3565b9392505050565b60006040820190506118186000830185611588565b6118256020830184611588565b9392505050565b600082825260208201905092915050565b600061184882611990565b915061185383611990565b9250827fffffffffffffffffffffffffffffffffffffffffffffffffffffffffffffffff03821115611888576118876119d0565b5b828201905092915050565b600061189e82611990565b91506118a983611990565b9250826118b9576118b86119ff565b5b828204905092915050565b60006118cf82611990565b91506118da83611990565b9250817fffffffffffffffffffffffffffffffffffffffffffffffffffffffffffffffff0483118215151615611913576119126119d0565b5b828202905092915050565b600061192982611990565b915061193483611990565b925082821015611947576119466119d0565b5b828203905092915050565b600061195d82611970565b9050919050565b60008115159050919050565b600073ffffffffffffffffffffffffffffffffffffffff82169050919050565b6000819050919050565b60006119a5826119ac565b9050919050565b60006119b7826119be565b9050919050565b60006119c982611970565b9050919050565b7f4e487b7100000000000000000000000000000000000000000000000000000000600052601160045260246000fd5b7f4e487b7100000000000000000000000000000000000000000000000000000000600052601260045260246000fd5b7f4572726f723a20546f6b656e2073616c652068617320656e6465640000000000600082015250565b7f4f776e61626c653a206e6577206f776e657220697320746865207a65726f206160008201527f6464726573730000000000000000000000000000000000000000000000000000602082015250565b7f4572726f723a204661696c656420746f2073656e6420584f5843415348000000600082015250565b7f4572726f723a20546f6b656e2073616c6520616c726561647920626567756e00600082015250565b7f4572726f723a2052617465206d7573742062652067726561746572207468616e60008201527f2030000000000000000000000000000000000000000000000000000000000000602082015250565b7f4572726f723a20546f6b656e2073616c6520686173206265656e2066696e616c60008201527f697a656400000000000000000000000000000000000000000000000000000000602082015250565b7f4572726f723a20546f6b656e2073616c6520686173206265656e2066696e616c60008201527f697a656420616e642063616e6e6f7420626520657874656e6465640000000000602082015250565b7f4572726f723a204f6e6c79206f7267616e697a6174696f6e2063616e2063616c60008201527f6c20746869732066756e6374696f6e0000000000000000000000000000000000602082015250565b7f4f776e61626c653a2063616c6c6572206973206e6f7420746865206f776e6572600082015250565b7f4572726f723a20546f6b656e2073616c6520686173206e6f7420626567756e2060008201527f7965740000000000000000000000000000000000000000000000000000000000602082015250565b7f4572726f723a204e6f7420656e6f75676820746f6b656e7320746f2073656c6c600082015250565b7f4572726f723a20436f756c64206e6f74207472616e736665722072656d61696e60008201527f696e6720746f6b656e7300000000000000000000000000000000000000000000602082015250565b7f4572726f723a20546f6b656e2073616c652063616e6e6f742062652066696e6160008201527f6c697a6564207477696365000000000000000000000000000000000000000000602082015250565b611d7c81611952565b8114611d8757600080fd5b50565b611d9381611964565b8114611d9e57600080fd5b50565b611daa81611990565b8114611db557600080fd5b5056fea26469706673582212207ebd7aaccd966aee9b8e6273a220e3e60baf5e84eedd7626d6637c81ba71e31564736f6c63430008040033",
  "immutableReferences": {},
  "source": "pragma solidity >=0.4.2 <0.9.0;\n\nimport \"@openzeppelin/contracts/utils/Context.sol\";\nimport \"@openzeppelin/contracts/access/Ownable.sol\";\nimport \"@openzeppelin/contracts/token/ERC20/IERC20.sol\";\n\ncontract TokenSale is Context, Ownable {\n  address payable _withdrawalWallet;\n  uint256 _rate;\n  uint256 _startTime;\n  uint256 _endTime;\n  bool _initialized = false;\n  bool _finalized = false;\n  IERC20 _tradeToken;\n\n  modifier onlyWithdrawalAddress() {\n    require(\n      _msgSender() == _withdrawalWallet,\n      \"Error: Only organization can call this function\"\n    );\n    _;\n  }\n\n  event RateChanged(uint256 newRate);\n  event TokenSaleStarted(uint256 startTime, uint256 endTime);\n  event TokenSaleExtended(uint256 newEndTime);\n  event TokenSaleFinalized(uint256 finalTime);\n  event TokenSold(uint256 amount, address buyer);\n  event BNBWithdrawn(address recipient, uint256 amount);\n\n  constructor(\n    address withdrawalWallet_,\n    uint256 rate_,\n    address token_\n  ) public Ownable() {\n    _withdrawalWallet = payable(withdrawalWallet_);\n    _rate = rate_;\n    _tradeToken = IERC20(token_);\n  }\n\n  function _setRate(uint256 rate_) private returns (bool) {\n    require(rate_ > 0, \"Error: Rate must be greater than 0\");\n    _rate = rate_;\n    emit RateChanged(_rate);\n    return true;\n  }\n\n  function setRate(uint256 rate_)\n    external\n    onlyWithdrawalAddress\n    returns (bool)\n  {\n    return _setRate(rate_);\n  }\n\n  function _beginTokenSale(uint256 _daysFromStart) private returns (bool) {\n    require(!_initialized, \"Error: Token sale already begun\");\n    _startTime = block.timestamp;\n    _endTime = block.timestamp + (_daysFromStart * 1 days);\n    _initialized = true;\n    emit TokenSaleStarted(_startTime, _endTime);\n    return true;\n  }\n\n  function beginTokenSale(uint256 _daysFromStart)\n    external\n    onlyWithdrawalAddress\n    returns (bool)\n  {\n    return _beginTokenSale(_daysFromStart);\n  }\n\n  function extendTokenSale(uint256 extension)\n    external\n    onlyWithdrawalAddress\n    returns (bool)\n  {\n    require(\n      !_finalized,\n      \"Error: Token sale has been finalized and cannot be extended\"\n    );\n    _endTime = block.timestamp + (extension * 1 days);\n    emit TokenSaleExtended(_endTime);\n    return true;\n  }\n\n  function finalizeTokenSale() external onlyWithdrawalAddress returns (bool) {\n    require(!_finalized, \"Error: Token sale cannot be finalized twice\");\n    require(\n      _tradeToken.transfer(\n        _withdrawalWallet,\n        _tradeToken.balanceOf(address(this))\n      ),\n      \"Error: Could not transfer remaining tokens\"\n    );\n    _finalized = true;\n    emit TokenSaleFinalized(block.timestamp);\n    return true;\n  }\n\n  function getRemainingDays() public view returns (uint256) {\n    if (_finalized) return 0;\n\n    uint256 currentTimestamp = block.timestamp;\n\n    if (_endTime > currentTimestamp) return _endTime - currentTimestamp;\n\n    return 0;\n  }\n\n  function buyXOX() public payable {\n    require(\n      block.timestamp >= _startTime,\n      \"Error: Token sale has not begun yet\"\n    );\n    require(block.timestamp < _endTime, \"Error: Token sale has ended\");\n    require(!_finalized, \"Error: Token sale has been finalized\");\n\n    uint256 _valueAsWei = msg.value * 10**18;\n    uint256 _valueDividedByRate = _valueAsWei / _rate;\n    uint256 _tenPercent = (_valueDividedByRate * 10) / 100;\n    uint256 _sending = _valueDividedByRate + _tenPercent;\n\n    require(\n      _tradeToken.balanceOf(address(this)) >= _sending,\n      \"Error: Not enough tokens to sell\"\n    );\n    bool sold = _tradeToken.transfer(msg.sender, _sending);\n    require(sold, \"Error: Failed to send XOXCASH\");\n    emit TokenSold(_sending, msg.sender);\n  }\n\n  function setWithdrawalWallet(address withdrawalWallet_)\n    external\n    onlyOwner\n    returns (bool)\n  {\n    _withdrawalWallet = payable(withdrawalWallet_);\n    return true;\n  }\n\n  function getRate() external view returns (uint256) {\n    return _rate;\n  }\n\n  function getStartTime() external view returns (uint256) {\n    return _startTime;\n  }\n\n  function getEndTime() external view returns (uint256) {\n    return _endTime;\n  }\n\n  function withdrawBNB() public onlyWithdrawalAddress returns (bool) {\n    uint256 bal = address(this).balance;\n    _withdrawalWallet.transfer(bal);\n    emit BNBWithdrawn(msg.sender, bal);\n  }\n\n  receive() external payable {\n    buyXOX();\n  }\n}\n",
  "sourcePath": "/home/kingsley/Code-Projects/xoxcashICO/contracts/TokenSale.sol",
  "compiler": {
    "name": "solc",
    "version": "0.8.4+commit.c7e474f2.Emscripten.clang"
  },
  "schemaVersion": "3.4.1",
  "updatedAt": "2021-09-03T21:52:18.945Z",
  "networkType": "ethereum",
  "devdoc": {
    "kind": "dev",
    "methods": {
      "owner()": {
        "details": "Returns the address of the current owner."
      },
      "renounceOwnership()": {
        "details": "Leaves the contract without owner. It will not be possible to call `onlyOwner` functions anymore. Can only be called by the current owner. NOTE: Renouncing ownership will leave the contract without an owner, thereby removing any functionality that is only available to the owner."
      },
      "transferOwnership(address)": {
        "details": "Transfers ownership of the contract to a new account (`newOwner`). Can only be called by the current owner."
      }
    },
    "version": 1
  },
  "userdoc": {
    "kind": "user",
    "methods": {},
    "version": 1
  }
}