{
  "contractName": "TokenSale",
  "abi": [
    {
      "inputs": [
        {
          "internalType": "address",
          "name": "withdrawalWallet_",
          "type": "address"
        },
        {
          "internalType": "uint256",
          "name": "rate_",
          "type": "uint256"
        },
        {
          "internalType": "address",
          "name": "token_",
          "type": "address"
        }
      ],
      "stateMutability": "nonpayable",
      "type": "constructor"
    },
    {
      "anonymous": false,
      "inputs": [
        {
          "indexed": true,
          "internalType": "address",
          "name": "previousOwner",
          "type": "address"
        },
        {
          "indexed": true,
          "internalType": "address",
          "name": "newOwner",
          "type": "address"
        }
      ],
      "name": "OwnershipTransferred",
      "type": "event"
    },
    {
      "anonymous": false,
      "inputs": [
        {
          "indexed": false,
          "internalType": "uint256",
          "name": "newRate",
          "type": "uint256"
        }
      ],
      "name": "RateChanged",
      "type": "event"
    },
    {
      "anonymous": false,
      "inputs": [
        {
          "indexed": false,
          "internalType": "uint256",
          "name": "newEndTime",
          "type": "uint256"
        }
      ],
      "name": "TokenSaleExtended",
      "type": "event"
    },
    {
      "anonymous": false,
      "inputs": [
        {
          "indexed": false,
          "internalType": "uint256",
          "name": "finalTime",
          "type": "uint256"
        }
      ],
      "name": "TokenSaleFinalized",
      "type": "event"
    },
    {
      "anonymous": false,
      "inputs": [
        {
          "indexed": false,
          "internalType": "uint256",
          "name": "startTime",
          "type": "uint256"
        },
        {
          "indexed": false,
          "internalType": "uint256",
          "name": "endTime",
          "type": "uint256"
        }
      ],
      "name": "TokenSaleStarted",
      "type": "event"
    },
    {
      "anonymous": false,
      "inputs": [
        {
          "indexed": false,
          "internalType": "uint256",
          "name": "amount",
          "type": "uint256"
        },
        {
          "indexed": false,
          "internalType": "address",
          "name": "buyer",
          "type": "address"
        }
      ],
      "name": "TokenSold",
      "type": "event"
    },
    {
      "inputs": [],
      "name": "owner",
      "outputs": [
        {
          "internalType": "address",
          "name": "",
          "type": "address"
        }
      ],
      "stateMutability": "view",
      "type": "function",
      "constant": true
    },
    {
      "inputs": [],
      "name": "renounceOwnership",
      "outputs": [],
      "stateMutability": "nonpayable",
      "type": "function"
    },
    {
      "inputs": [
        {
          "internalType": "address",
          "name": "newOwner",
          "type": "address"
        }
      ],
      "name": "transferOwnership",
      "outputs": [],
      "stateMutability": "nonpayable",
      "type": "function"
    },
    {
      "inputs": [
        {
          "internalType": "uint256",
          "name": "rate_",
          "type": "uint256"
        }
      ],
      "name": "setRate",
      "outputs": [
        {
          "internalType": "bool",
          "name": "",
          "type": "bool"
        }
      ],
      "stateMutability": "nonpayable",
      "type": "function"
    },
    {
      "inputs": [
        {
          "internalType": "uint256",
          "name": "daysFromStart",
          "type": "uint256"
        }
      ],
      "name": "beginTokenSale",
      "outputs": [
        {
          "internalType": "bool",
          "name": "",
          "type": "bool"
        }
      ],
      "stateMutability": "nonpayable",
      "type": "function"
    },
    {
      "inputs": [
        {
          "internalType": "uint256",
          "name": "extension",
          "type": "uint256"
        }
      ],
      "name": "extendTokenSale",
      "outputs": [
        {
          "internalType": "bool",
          "name": "",
          "type": "bool"
        }
      ],
      "stateMutability": "nonpayable",
      "type": "function"
    },
    {
      "inputs": [],
      "name": "finalizeTokenSale",
      "outputs": [
        {
          "internalType": "bool",
          "name": "",
          "type": "bool"
        }
      ],
      "stateMutability": "nonpayable",
      "type": "function"
    },
    {
      "inputs": [],
      "name": "getRemainingDays",
      "outputs": [
        {
          "internalType": "uint256",
          "name": "",
          "type": "uint256"
        }
      ],
      "stateMutability": "view",
      "type": "function",
      "constant": true
    },
    {
      "inputs": [
        {
          "internalType": "uint256",
          "name": "amount",
          "type": "uint256"
        }
      ],
      "name": "buy",
      "outputs": [
        {
          "internalType": "bool",
          "name": "bought",
          "type": "bool"
        }
      ],
      "stateMutability": "nonpayable",
      "type": "function"
    },
    {
      "inputs": [
        {
          "internalType": "address",
          "name": "withdrawalWallet_",
          "type": "address"
        }
      ],
      "name": "setWithdrawalWallet",
      "outputs": [
        {
          "internalType": "bool",
          "name": "",
          "type": "bool"
        }
      ],
      "stateMutability": "nonpayable",
      "type": "function"
    },
    {
      "inputs": [],
      "name": "getRate",
      "outputs": [
        {
          "internalType": "uint256",
          "name": "",
          "type": "uint256"
        }
      ],
      "stateMutability": "view",
      "type": "function",
      "constant": true
    },
    {
      "inputs": [],
      "name": "getStartTime",
      "outputs": [
        {
          "internalType": "uint256",
          "name": "",
          "type": "uint256"
        }
      ],
      "stateMutability": "view",
      "type": "function",
      "constant": true
    },
    {
      "inputs": [],
      "name": "getEndTime",
      "outputs": [
        {
          "internalType": "uint256",
          "name": "",
          "type": "uint256"
        }
      ],
      "stateMutability": "view",
      "type": "function",
      "constant": true
    }
  ],
  "bytecode": "0x60806040526000600560006101000a81548160ff0219169083151502179055506000600560016101000a81548160ff0219169083151502179055503480156200004757600080fd5b5060405162001a2838038062001a2883398181016040528101906200006d919062000219565b6200008d620000816200011f60201b60201c565b6200012760201b60201c565b82600160006101000a81548173ffffffffffffffffffffffffffffffffffffffff021916908373ffffffffffffffffffffffffffffffffffffffff1602179055508160028190555080600560026101000a81548173ffffffffffffffffffffffffffffffffffffffff021916908373ffffffffffffffffffffffffffffffffffffffff160217905550505050620002e1565b600033905090565b60008060009054906101000a900473ffffffffffffffffffffffffffffffffffffffff169050816000806101000a81548173ffffffffffffffffffffffffffffffffffffffff021916908373ffffffffffffffffffffffffffffffffffffffff1602179055508173ffffffffffffffffffffffffffffffffffffffff168173ffffffffffffffffffffffffffffffffffffffff167f8be0079c531659141344cd1fd0a4f28419497f9722a3daafe3b4186f6b6457e060405160405180910390a35050565b600081519050620001fc81620002ad565b92915050565b6000815190506200021381620002c7565b92915050565b6000806000606084860312156200022f57600080fd5b60006200023f86828701620001eb565b9350506020620002528682870162000202565b92505060406200026586828701620001eb565b9150509250925092565b60006200027c8262000283565b9050919050565b600073ffffffffffffffffffffffffffffffffffffffff82169050919050565b6000819050919050565b620002b8816200026f565b8114620002c457600080fd5b50565b620002d281620002a3565b8114620002de57600080fd5b50565b61173780620002f16000396000f3fe608060405234801561001057600080fd5b50600436106100ce5760003560e01c806375796f761161008c5780638da5cb5b116100665780638da5cb5b14610215578063c828371e14610233578063d96a094a14610251578063f2fde38b14610281576100ce565b806375796f76146101975780637693488b146101c75780638b3c1718146101e5576100ce565b80620c7019146100d357806310efa98e146100f157806334fcf43714610121578063439f5ac214610151578063679aefce1461016f578063715018a61461018d575b600080fd5b6100db61029d565b6040516100e891906111cf565b60405180910390f35b61010b60048036038101906101069190610e5f565b6102cc565b6040516101189190611074565b60405180910390f35b61013b60048036038101906101369190610e5f565b610417565b6040516101489190611074565b60405180910390f35b6101596104c0565b60405161016691906111cf565b60405180910390f35b6101776104ca565b60405161018491906111cf565b60405180910390f35b6101956104d4565b005b6101b160048036038101906101ac9190610e0d565b61055c565b6040516101be9190611074565b60405180910390f35b6101cf610624565b6040516101dc9190611074565b60405180910390f35b6101ff60048036038101906101fa9190610e5f565b610766565b60405161020c9190611074565b60405180910390f35b61021d6108d3565b60405161022a9190611022565b60405180910390f35b61023b6108fc565b60405161024891906111cf565b60405180910390f35b61026b60048036038101906102669190610e5f565b610906565b6040516102789190611074565b60405180910390f35b61029b60048036038101906102969190610e0d565b610b6a565b005b6000804290508060045411156102c357806004546102bb919061132e565b9150506102c9565b60009150505b90565b6000600160009054906101000a900473ffffffffffffffffffffffffffffffffffffffff1673ffffffffffffffffffffffffffffffffffffffff1661030f610c62565b73ffffffffffffffffffffffffffffffffffffffff1614610365576040517f08c379a000000000000000000000000000000000000000000000000000000000815260040161035c9061114f565b60405180910390fd5b600560019054906101000a900460ff16156103b5576040517f08c379a00000000000000000000000000000000000000000000000000000000081526004016103ac9061112f565b60405180910390fd5b62015180826103c491906112d4565b426103cf919061124d565b6004819055507f057ef55123d60d20f8e2ebda78fcfd24dfcad0647ca443a91e71941deb00bc9260045460405161040691906111cf565b60405180910390a160019050919050565b6000600160009054906101000a900473ffffffffffffffffffffffffffffffffffffffff1673ffffffffffffffffffffffffffffffffffffffff1661045a610c62565b73ffffffffffffffffffffffffffffffffffffffff16146104b0576040517f08c379a00000000000000000000000000000000000000000000000000000000081526004016104a79061114f565b60405180910390fd5b6104b982610c6a565b9050919050565b6000600454905090565b6000600254905090565b6104dc610c62565b73ffffffffffffffffffffffffffffffffffffffff166104fa6108d3565b73ffffffffffffffffffffffffffffffffffffffff1614610550576040517f08c379a00000000000000000000000000000000000000000000000000000000081526004016105479061116f565b60405180910390fd5b61055a6000610d0a565b565b6000610566610c62565b73ffffffffffffffffffffffffffffffffffffffff166105846108d3565b73ffffffffffffffffffffffffffffffffffffffff16146105da576040517f08c379a00000000000000000000000000000000000000000000000000000000081526004016105d19061116f565b60405180910390fd5b81600160006101000a81548173ffffffffffffffffffffffffffffffffffffffff021916908373ffffffffffffffffffffffffffffffffffffffff16021790555060019050919050565b6000600160009054906101000a900473ffffffffffffffffffffffffffffffffffffffff1673ffffffffffffffffffffffffffffffffffffffff16610667610c62565b73ffffffffffffffffffffffffffffffffffffffff16146106bd576040517f08c379a00000000000000000000000000000000000000000000000000000000081526004016106b49061114f565b60405180910390fd5b600560019054906101000a900460ff161561070d576040517f08c379a0000000000000000000000000000000000000000000000000000000008152600401610704906111af565b60405180910390fd5b6001600560016101000a81548160ff0219169083151502179055507f3d4bd2c362de1fb2fb5d7fbe732e27aba89ba2c9d8acd44346bf30b520eb0da24260405161075791906111cf565b60405180910390a16001905090565b6000600160009054906101000a900473ffffffffffffffffffffffffffffffffffffffff1673ffffffffffffffffffffffffffffffffffffffff166107a9610c62565b73ffffffffffffffffffffffffffffffffffffffff16146107ff576040517f08c379a00000000000000000000000000000000000000000000000000000000081526004016107f69061114f565b60405180910390fd5b600560009054906101000a900460ff161561084f576040517f08c379a0000000000000000000000000000000000000000000000000000000008152600401610846906110ef565b60405180910390fd5b42600381905550620151808261086591906112d4565b42610870919061124d565b6004819055506001600560006101000a81548160ff0219169083151502179055507fe7a4dc9c36cc4f7a8a5166f25ebecb1543220b790b75b19ba25421da6b02cb326003546004546040516108c6929190611213565b60405180910390a1919050565b60008060009054906101000a900473ffffffffffffffffffffffffffffffffffffffff16905090565b6000600354905090565b600060035442101561094d576040517f08c379a00000000000000000000000000000000000000000000000000000000081526004016109449061118f565b60405180910390fd5b6004544210610991576040517f08c379a00000000000000000000000000000000000000000000000000000000081526004016109889061108f565b60405180910390fd5b600160009054906101000a900473ffffffffffffffffffffffffffffffffffffffff1673ffffffffffffffffffffffffffffffffffffffff166108fc839081150290604051600060405180830381858888f193505050501580156109f9573d6000803e3d6000fd5b506000600560029054906101000a900473ffffffffffffffffffffffffffffffffffffffff1673ffffffffffffffffffffffffffffffffffffffff166323b872dd600160009054906101000a900473ffffffffffffffffffffffffffffffffffffffff163360025487610a6c91906112a3565b6040518463ffffffff1660e01b8152600401610a8a9392919061103d565b602060405180830381600087803b158015610aa457600080fd5b505af1158015610ab8573d6000803e3d6000fd5b505050506040513d601f19601f82011682018060405250810190610adc9190610e36565b905080610b1e576040517f08c379a0000000000000000000000000000000000000000000000000000000008152600401610b15906110cf565b60405180910390fd5b7f751f224aea8528cb3199d1615151d4b851c884ad39e72c306356520ec6d2cf9560025484610b4d91906112a3565b33604051610b5c9291906111ea565b60405180910390a150919050565b610b72610c62565b73ffffffffffffffffffffffffffffffffffffffff16610b906108d3565b73ffffffffffffffffffffffffffffffffffffffff1614610be6576040517f08c379a0000000000000000000000000000000000000000000000000000000008152600401610bdd9061116f565b60405180910390fd5b600073ffffffffffffffffffffffffffffffffffffffff168173ffffffffffffffffffffffffffffffffffffffff161415610c56576040517f08c379a0000000000000000000000000000000000000000000000000000000008152600401610c4d906110af565b60405180910390fd5b610c5f81610d0a565b50565b600033905090565b6000808211610cae576040517f08c379a0000000000000000000000000000000000000000000000000000000008152600401610ca59061110f565b60405180910390fd5b670de0b6b3a764000082610cc291906112d4565b6002819055507f595a30f13a69b616c4d568e2a2b7875fdfe86e4300a049953c76ee278f8f3f10600254604051610cf991906111cf565b60405180910390a160019050919050565b60008060009054906101000a900473ffffffffffffffffffffffffffffffffffffffff169050816000806101000a81548173ffffffffffffffffffffffffffffffffffffffff021916908373ffffffffffffffffffffffffffffffffffffffff1602179055508173ffffffffffffffffffffffffffffffffffffffff168173ffffffffffffffffffffffffffffffffffffffff167f8be0079c531659141344cd1fd0a4f28419497f9722a3daafe3b4186f6b6457e060405160405180910390a35050565b600081359050610ddd816116bc565b92915050565b600081519050610df2816116d3565b92915050565b600081359050610e07816116ea565b92915050565b600060208284031215610e1f57600080fd5b6000610e2d84828501610dce565b91505092915050565b600060208284031215610e4857600080fd5b6000610e5684828501610de3565b91505092915050565b600060208284031215610e7157600080fd5b6000610e7f84828501610df8565b91505092915050565b610e91816113aa565b82525050565b610ea081611362565b82525050565b610eaf81611374565b82525050565b6000610ec2601b8361123c565b9150610ecd8261143e565b602082019050919050565b6000610ee560268361123c565b9150610ef082611467565b604082019050919050565b6000610f08601d8361123c565b9150610f13826114b6565b602082019050919050565b6000610f2b601f8361123c565b9150610f36826114df565b602082019050919050565b6000610f4e60228361123c565b9150610f5982611508565b604082019050919050565b6000610f71603b8361123c565b9150610f7c82611557565b604082019050919050565b6000610f94602f8361123c565b9150610f9f826115a6565b604082019050919050565b6000610fb760208361123c565b9150610fc2826115f5565b602082019050919050565b6000610fda60238361123c565b9150610fe58261161e565b604082019050919050565b6000610ffd602b8361123c565b91506110088261166d565b604082019050919050565b61101c816113a0565b82525050565b60006020820190506110376000830184610e97565b92915050565b60006060820190506110526000830186610e88565b61105f6020830185610e97565b61106c6040830184611013565b949350505050565b60006020820190506110896000830184610ea6565b92915050565b600060208201905081810360008301526110a881610eb5565b9050919050565b600060208201905081810360008301526110c881610ed8565b9050919050565b600060208201905081810360008301526110e881610efb565b9050919050565b6000602082019050818103600083015261110881610f1e565b9050919050565b6000602082019050818103600083015261112881610f41565b9050919050565b6000602082019050818103600083015261114881610f64565b9050919050565b6000602082019050818103600083015261116881610f87565b9050919050565b6000602082019050818103600083015261118881610faa565b9050919050565b600060208201905081810360008301526111a881610fcd565b9050919050565b600060208201905081810360008301526111c881610ff0565b9050919050565b60006020820190506111e46000830184611013565b92915050565b60006040820190506111ff6000830185611013565b61120c6020830184610e97565b9392505050565b60006040820190506112286000830185611013565b6112356020830184611013565b9392505050565b600082825260208201905092915050565b6000611258826113a0565b9150611263836113a0565b9250827fffffffffffffffffffffffffffffffffffffffffffffffffffffffffffffffff03821115611298576112976113e0565b5b828201905092915050565b60006112ae826113a0565b91506112b9836113a0565b9250826112c9576112c861140f565b5b828204905092915050565b60006112df826113a0565b91506112ea836113a0565b9250817fffffffffffffffffffffffffffffffffffffffffffffffffffffffffffffffff0483118215151615611323576113226113e0565b5b828202905092915050565b6000611339826113a0565b9150611344836113a0565b925082821015611357576113566113e0565b5b828203905092915050565b600061136d82611380565b9050919050565b60008115159050919050565b600073ffffffffffffffffffffffffffffffffffffffff82169050919050565b6000819050919050565b60006113b5826113bc565b9050919050565b60006113c7826113ce565b9050919050565b60006113d982611380565b9050919050565b7f4e487b7100000000000000000000000000000000000000000000000000000000600052601160045260246000fd5b7f4e487b7100000000000000000000000000000000000000000000000000000000600052601260045260246000fd5b7f4572726f723a20546f6b656e2073616c652068617320656e6465640000000000600082015250565b7f4f776e61626c653a206e6577206f776e657220697320746865207a65726f206160008201527f6464726573730000000000000000000000000000000000000000000000000000602082015250565b7f4572726f723a204661696c656420746f2073656e6420584f5843415348000000600082015250565b7f4572726f723a20546f6b656e2073616c6520616c726561647920626567756e00600082015250565b7f4572726f723a2052617465206d7573742062652067726561746572207468616e60008201527f2030000000000000000000000000000000000000000000000000000000000000602082015250565b7f4572726f723a20546f6b656e2073616c6520686173206265656e2066696e616c60008201527f697a656420616e642063616e6e6f7420626520657874656e6465640000000000602082015250565b7f4572726f723a204f6e6c79206f7267616e697a6174696f6e2063616e2063616c60008201527f6c20746869732066756e6374696f6e0000000000000000000000000000000000602082015250565b7f4f776e61626c653a2063616c6c6572206973206e6f7420746865206f776e6572600082015250565b7f4572726f723a20546f6b656e2073616c6520686173206e6f7420626567756e2060008201527f7965740000000000000000000000000000000000000000000000000000000000602082015250565b7f4572726f723a20546f6b656e2073616c652063616e6e6f742062652066696e6160008201527f6c697a6564207477696365000000000000000000000000000000000000000000602082015250565b6116c581611362565b81146116d057600080fd5b50565b6116dc81611374565b81146116e757600080fd5b50565b6116f3816113a0565b81146116fe57600080fd5b5056fea26469706673582212204a1ee0a44008ced496af2c22b11bc805a9e0166883c692e0578e19f142c10c5d64736f6c63430008040033",
  "immutableReferences": {},
  "source": "pragma solidity >=0.4.2 <0.9.0;\n\nimport \"@openzeppelin/contracts/utils/Context.sol\";\nimport \"@openzeppelin/contracts/access/Ownable.sol\";\nimport \"@openzeppelin/contracts/token/ERC20/IERC20.sol\";\n\ncontract TokenSale is Context, Ownable {\n  address payable _withdrawalWallet;\n  uint256 _rate;\n  uint256 _startTime;\n  uint256 _endTime;\n  bool _initialized = false;\n  bool _finalized = false;\n  IERC20 _tradeToken;\n\n  modifier onlyWithdrawalAddress() {\n    require(\n      _msgSender() == _withdrawalWallet,\n      \"Error: Only organization can call this function\"\n    );\n    _;\n  }\n\n  event RateChanged(uint256 newRate);\n  event TokenSaleStarted(uint256 startTime, uint256 endTime);\n  event TokenSaleExtended(uint256 newEndTime);\n  event TokenSaleFinalized(uint256 finalTime);\n  event TokenSold(uint256 amount, address buyer);\n\n  constructor(\n    address withdrawalWallet_,\n    uint256 rate_,\n    address token_\n  ) public Ownable() {\n    _withdrawalWallet = payable(withdrawalWallet_);\n    _rate = rate_;\n    _tradeToken = IERC20(token_);\n  }\n\n  function _setRate(uint256 rate_) private returns (bool) {\n    require(rate_ > 0, \"Error: Rate must be greater than 0\");\n    _rate = rate_ * 1 ether;\n    emit RateChanged(_rate);\n    return true;\n  }\n\n  function setRate(uint256 rate_)\n    external\n    onlyWithdrawalAddress\n    returns (bool)\n  {\n    return _setRate(rate_);\n  }\n\n  function beginTokenSale(uint256 daysFromStart)\n    external\n    onlyWithdrawalAddress\n    returns (bool)\n  {\n    require(!_initialized, \"Error: Token sale already begun\");\n    _startTime = block.timestamp;\n    _endTime = block.timestamp + (daysFromStart * 1 days);\n    _initialized = true;\n    emit TokenSaleStarted(_startTime, _endTime);\n  }\n\n  function extendTokenSale(uint256 extension)\n    external\n    onlyWithdrawalAddress\n    returns (bool)\n  {\n    require(\n      !_finalized,\n      \"Error: Token sale has been finalized and cannot be extended\"\n    );\n    _endTime = block.timestamp + (extension * 1 days);\n    emit TokenSaleExtended(_endTime);\n    return true;\n  }\n\n  function finalizeTokenSale() external onlyWithdrawalAddress returns (bool) {\n    require(!_finalized, \"Error: Token sale cannot be finalized twice\");\n    _finalized = true;\n    emit TokenSaleFinalized(block.timestamp);\n    return true;\n  }\n\n  function getRemainingDays() public view returns (uint256) {\n    uint256 currentTimestamp = block.timestamp;\n\n    if (_endTime > currentTimestamp) return _endTime - currentTimestamp;\n\n    return 0;\n  }\n\n  function buy(uint256 amount) external returns (bool bought) {\n    require(\n      block.timestamp >= _startTime,\n      \"Error: Token sale has not begun yet\"\n    );\n    require(block.timestamp < _endTime, \"Error: Token sale has ended\");\n    _withdrawalWallet.transfer(amount);\n    bool sold = _tradeToken.transferFrom(\n      _withdrawalWallet,\n      msg.sender,\n      amount / _rate\n    );\n    require(sold, \"Error: Failed to send XOXCASH\");\n    emit TokenSold(amount / _rate, msg.sender);\n  }\n\n  function setWithdrawalWallet(address withdrawalWallet_)\n    external\n    onlyOwner\n    returns (bool)\n  {\n    _withdrawalWallet = payable(withdrawalWallet_);\n    return true;\n  }\n\n  function getRate() external view returns (uint256) {\n    return _rate;\n  }\n\n  function getStartTime() external view returns (uint256) {\n    return _startTime;\n  }\n\n  function getEndTime() external view returns (uint256) {\n    return _endTime;\n  }\n}\n",
  "sourcePath": "/home/kingsley/Code-Projects/xoxcashICO/contracts/TokenSale.sol",
  "compiler": {
    "name": "solc",
    "version": "0.8.4+commit.c7e474f2.Emscripten.clang"
  },
  "schemaVersion": "3.4.1",
  "updatedAt": "2021-08-28T18:51:06.893Z",
  "networkType": "ethereum",
  "devdoc": {
    "kind": "dev",
    "methods": {
      "owner()": {
        "details": "Returns the address of the current owner."
      },
      "renounceOwnership()": {
        "details": "Leaves the contract without owner. It will not be possible to call `onlyOwner` functions anymore. Can only be called by the current owner. NOTE: Renouncing ownership will leave the contract without an owner, thereby removing any functionality that is only available to the owner."
      },
      "transferOwnership(address)": {
        "details": "Transfers ownership of the contract to a new account (`newOwner`). Can only be called by the current owner."
      }
    },
    "version": 1
  },
  "userdoc": {
    "kind": "user",
    "methods": {},
    "version": 1
  }
}