{
  "contractName": "TokenSale",
  "abi": [
    {
      "inputs": [
        {
          "internalType": "address",
          "name": "withdrawalWallet_",
          "type": "address"
        },
        {
          "internalType": "uint256",
          "name": "rate_",
          "type": "uint256"
        },
        {
          "internalType": "address",
          "name": "token_",
          "type": "address"
        }
      ],
      "stateMutability": "nonpayable",
      "type": "constructor"
    },
    {
      "anonymous": false,
      "inputs": [
        {
          "indexed": true,
          "internalType": "address",
          "name": "previousOwner",
          "type": "address"
        },
        {
          "indexed": true,
          "internalType": "address",
          "name": "newOwner",
          "type": "address"
        }
      ],
      "name": "OwnershipTransferred",
      "type": "event"
    },
    {
      "anonymous": false,
      "inputs": [
        {
          "indexed": false,
          "internalType": "uint256",
          "name": "newRate",
          "type": "uint256"
        }
      ],
      "name": "RateChanged",
      "type": "event"
    },
    {
      "anonymous": false,
      "inputs": [
        {
          "indexed": false,
          "internalType": "uint256",
          "name": "newEndTime",
          "type": "uint256"
        }
      ],
      "name": "TokenSaleExtended",
      "type": "event"
    },
    {
      "anonymous": false,
      "inputs": [
        {
          "indexed": false,
          "internalType": "uint256",
          "name": "finalTime",
          "type": "uint256"
        }
      ],
      "name": "TokenSaleFinalized",
      "type": "event"
    },
    {
      "anonymous": false,
      "inputs": [
        {
          "indexed": false,
          "internalType": "uint256",
          "name": "startTime",
          "type": "uint256"
        },
        {
          "indexed": false,
          "internalType": "uint256",
          "name": "endTime",
          "type": "uint256"
        }
      ],
      "name": "TokenSaleStarted",
      "type": "event"
    },
    {
      "anonymous": false,
      "inputs": [
        {
          "indexed": false,
          "internalType": "uint256",
          "name": "amount",
          "type": "uint256"
        },
        {
          "indexed": false,
          "internalType": "address",
          "name": "buyer",
          "type": "address"
        }
      ],
      "name": "TokenSold",
      "type": "event"
    },
    {
      "inputs": [],
      "name": "owner",
      "outputs": [
        {
          "internalType": "address",
          "name": "",
          "type": "address"
        }
      ],
      "stateMutability": "view",
      "type": "function",
      "constant": true
    },
    {
      "inputs": [],
      "name": "renounceOwnership",
      "outputs": [],
      "stateMutability": "nonpayable",
      "type": "function"
    },
    {
      "inputs": [
        {
          "internalType": "address",
          "name": "newOwner",
          "type": "address"
        }
      ],
      "name": "transferOwnership",
      "outputs": [],
      "stateMutability": "nonpayable",
      "type": "function"
    },
    {
      "inputs": [
        {
          "internalType": "uint256",
          "name": "rate_",
          "type": "uint256"
        }
      ],
      "name": "setRate",
      "outputs": [
        {
          "internalType": "bool",
          "name": "",
          "type": "bool"
        }
      ],
      "stateMutability": "nonpayable",
      "type": "function"
    },
    {
      "inputs": [
        {
          "internalType": "uint256",
          "name": "daysFromStart",
          "type": "uint256"
        }
      ],
      "name": "beginTokenSale",
      "outputs": [
        {
          "internalType": "bool",
          "name": "",
          "type": "bool"
        }
      ],
      "stateMutability": "nonpayable",
      "type": "function"
    },
    {
      "inputs": [
        {
          "internalType": "uint256",
          "name": "extension",
          "type": "uint256"
        }
      ],
      "name": "extendTokenSale",
      "outputs": [
        {
          "internalType": "bool",
          "name": "",
          "type": "bool"
        }
      ],
      "stateMutability": "nonpayable",
      "type": "function"
    },
    {
      "inputs": [],
      "name": "finalizeTokenSale",
      "outputs": [
        {
          "internalType": "bool",
          "name": "",
          "type": "bool"
        }
      ],
      "stateMutability": "nonpayable",
      "type": "function"
    },
    {
      "inputs": [],
      "name": "getRemainingDays",
      "outputs": [
        {
          "internalType": "uint256",
          "name": "",
          "type": "uint256"
        }
      ],
      "stateMutability": "view",
      "type": "function",
      "constant": true
    },
    {
      "inputs": [
        {
          "internalType": "uint256",
          "name": "amount",
          "type": "uint256"
        }
      ],
      "name": "buy",
      "outputs": [
        {
          "internalType": "bool",
          "name": "bought",
          "type": "bool"
        }
      ],
      "stateMutability": "nonpayable",
      "type": "function"
    },
    {
      "inputs": [
        {
          "internalType": "address",
          "name": "withdrawalWallet_",
          "type": "address"
        }
      ],
      "name": "setWithdrawalWallet",
      "outputs": [
        {
          "internalType": "bool",
          "name": "",
          "type": "bool"
        }
      ],
      "stateMutability": "nonpayable",
      "type": "function"
    },
    {
      "inputs": [],
      "name": "getRate",
      "outputs": [
        {
          "internalType": "uint256",
          "name": "",
          "type": "uint256"
        }
      ],
      "stateMutability": "view",
      "type": "function",
      "constant": true
    }
  ],
  "bytecode": "0x60806040526000600560006101000a81548160ff0219169083151502179055506000600560016101000a81548160ff0219169083151502179055503480156200004757600080fd5b5060405162001aee38038062001aee83398181016040528101906200006d919062000219565b6200008d620000816200011f60201b60201c565b6200012760201b60201c565b82600160006101000a81548173ffffffffffffffffffffffffffffffffffffffff021916908373ffffffffffffffffffffffffffffffffffffffff1602179055508160028190555080600560026101000a81548173ffffffffffffffffffffffffffffffffffffffff021916908373ffffffffffffffffffffffffffffffffffffffff160217905550505050620002e1565b600033905090565b60008060009054906101000a900473ffffffffffffffffffffffffffffffffffffffff169050816000806101000a81548173ffffffffffffffffffffffffffffffffffffffff021916908373ffffffffffffffffffffffffffffffffffffffff1602179055508173ffffffffffffffffffffffffffffffffffffffff168173ffffffffffffffffffffffffffffffffffffffff167f8be0079c531659141344cd1fd0a4f28419497f9722a3daafe3b4186f6b6457e060405160405180910390a35050565b600081519050620001fc81620002ad565b92915050565b6000815190506200021381620002c7565b92915050565b6000806000606084860312156200022f57600080fd5b60006200023f86828701620001eb565b9350506020620002528682870162000202565b92505060406200026586828701620001eb565b9150509250925092565b60006200027c8262000283565b9050919050565b600073ffffffffffffffffffffffffffffffffffffffff82169050919050565b6000819050919050565b620002b8816200026f565b8114620002c457600080fd5b50565b620002d281620002a3565b8114620002de57600080fd5b50565b6117fd80620002f16000396000f3fe608060405234801561001057600080fd5b50600436106100a85760003560e01c806375796f761161007157806375796f76146101535780637693488b146101835780638b3c1718146101a15780638da5cb5b146101d1578063d96a094a146101ef578063f2fde38b1461021f576100a8565b80620c7019146100ad57806310efa98e146100cb57806334fcf437146100fb578063679aefce1461012b578063715018a614610149575b600080fd5b6100b561023b565b6040516100c29190611238565b60405180910390f35b6100e560048036038101906100e09190610e4d565b61026a565b6040516100f291906110bd565b60405180910390f35b61011560048036038101906101109190610e4d565b6103b5565b60405161012291906110bd565b60405180910390f35b61013361045e565b6040516101409190611238565b60405180910390f35b610151610468565b005b61016d60048036038101906101689190610dfb565b6104f0565b60405161017a91906110bd565b60405180910390f35b61018b6105b8565b60405161019891906110bd565b60405180910390f35b6101bb60048036038101906101b69190610e4d565b6106fa565b6040516101c891906110bd565b60405180910390f35b6101d9610867565b6040516101e6919061106b565b60405180910390f35b61020960048036038101906102049190610e4d565b610890565b60405161021691906110bd565b60405180910390f35b61023960048036038101906102349190610dfb565b610b5a565b005b600080429050806004541115610261578060045461025991906113a2565b915050610267565b60009150505b90565b6000600160009054906101000a900473ffffffffffffffffffffffffffffffffffffffff1673ffffffffffffffffffffffffffffffffffffffff166102ad610c52565b73ffffffffffffffffffffffffffffffffffffffff1614610303576040517f08c379a00000000000000000000000000000000000000000000000000000000081526004016102fa90611198565b60405180910390fd5b600560019054906101000a900460ff1615610353576040517f08c379a000000000000000000000000000000000000000000000000000000000815260040161034a90611178565b60405180910390fd5b62015180826103629190611348565b4261036d91906112c1565b6004819055507f057ef55123d60d20f8e2ebda78fcfd24dfcad0647ca443a91e71941deb00bc926004546040516103a49190611238565b60405180910390a160019050919050565b6000600160009054906101000a900473ffffffffffffffffffffffffffffffffffffffff1673ffffffffffffffffffffffffffffffffffffffff166103f8610c52565b73ffffffffffffffffffffffffffffffffffffffff161461044e576040517f08c379a000000000000000000000000000000000000000000000000000000000815260040161044590611198565b60405180910390fd5b61045782610c5a565b9050919050565b6000600254905090565b610470610c52565b73ffffffffffffffffffffffffffffffffffffffff1661048e610867565b73ffffffffffffffffffffffffffffffffffffffff16146104e4576040517f08c379a00000000000000000000000000000000000000000000000000000000081526004016104db906111d8565b60405180910390fd5b6104ee6000610cf8565b565b60006104fa610c52565b73ffffffffffffffffffffffffffffffffffffffff16610518610867565b73ffffffffffffffffffffffffffffffffffffffff161461056e576040517f08c379a0000000000000000000000000000000000000000000000000000000008152600401610565906111d8565b60405180910390fd5b81600160006101000a81548173ffffffffffffffffffffffffffffffffffffffff021916908373ffffffffffffffffffffffffffffffffffffffff16021790555060019050919050565b6000600160009054906101000a900473ffffffffffffffffffffffffffffffffffffffff1673ffffffffffffffffffffffffffffffffffffffff166105fb610c52565b73ffffffffffffffffffffffffffffffffffffffff1614610651576040517f08c379a000000000000000000000000000000000000000000000000000000000815260040161064890611198565b60405180910390fd5b600560019054906101000a900460ff16156106a1576040517f08c379a000000000000000000000000000000000000000000000000000000000815260040161069890611218565b60405180910390fd5b6001600560016101000a81548160ff0219169083151502179055507f3d4bd2c362de1fb2fb5d7fbe732e27aba89ba2c9d8acd44346bf30b520eb0da2426040516106eb9190611238565b60405180910390a16001905090565b6000600160009054906101000a900473ffffffffffffffffffffffffffffffffffffffff1673ffffffffffffffffffffffffffffffffffffffff1661073d610c52565b73ffffffffffffffffffffffffffffffffffffffff1614610793576040517f08c379a000000000000000000000000000000000000000000000000000000000815260040161078a90611198565b60405180910390fd5b600560009054906101000a900460ff16156107e3576040517f08c379a00000000000000000000000000000000000000000000000000000000081526004016107da90611138565b60405180910390fd5b4260038190555062015180826107f99190611348565b4261080491906112c1565b6004819055506001600560006101000a81548160ff0219169083151502179055507fe7a4dc9c36cc4f7a8a5166f25ebecb1543220b790b75b19ba25421da6b02cb3260035460045460405161085a92919061127c565b60405180910390a1919050565b60008060009054906101000a900473ffffffffffffffffffffffffffffffffffffffff16905090565b60006003544210156108d7576040517f08c379a00000000000000000000000000000000000000000000000000000000081526004016108ce906111f8565b60405180910390fd5b600454421061091b576040517f08c379a0000000000000000000000000000000000000000000000000000000008152600401610912906110d8565b60405180910390fd5b6000600160009054906101000a900473ffffffffffffffffffffffffffffffffffffffff1673ffffffffffffffffffffffffffffffffffffffff168360405161096390611056565b60006040518083038185875af1925050503d80600081146109a0576040519150601f19603f3d011682016040523d82523d6000602084013e6109a5565b606091505b50509050806109e9576040517f08c379a00000000000000000000000000000000000000000000000000000000081526004016109e0906111b8565b60405180910390fd5b6000600560029054906101000a900473ffffffffffffffffffffffffffffffffffffffff1673ffffffffffffffffffffffffffffffffffffffff166323b872dd600160009054906101000a900473ffffffffffffffffffffffffffffffffffffffff163360025488610a5b9190611317565b6040518463ffffffff1660e01b8152600401610a7993929190611086565b602060405180830381600087803b158015610a9357600080fd5b505af1158015610aa7573d6000803e3d6000fd5b505050506040513d601f19601f82011682018060405250810190610acb9190610e24565b905080610b0d576040517f08c379a0000000000000000000000000000000000000000000000000000000008152600401610b0490611118565b60405180910390fd5b7f751f224aea8528cb3199d1615151d4b851c884ad39e72c306356520ec6d2cf9560025485610b3c9190611317565b33604051610b4b929190611253565b60405180910390a15050919050565b610b62610c52565b73ffffffffffffffffffffffffffffffffffffffff16610b80610867565b73ffffffffffffffffffffffffffffffffffffffff1614610bd6576040517f08c379a0000000000000000000000000000000000000000000000000000000008152600401610bcd906111d8565b60405180910390fd5b600073ffffffffffffffffffffffffffffffffffffffff168173ffffffffffffffffffffffffffffffffffffffff161415610c46576040517f08c379a0000000000000000000000000000000000000000000000000000000008152600401610c3d906110f8565b60405180910390fd5b610c4f81610cf8565b50565b600033905090565b6000808211610c9e576040517f08c379a0000000000000000000000000000000000000000000000000000000008152600401610c9590611158565b60405180910390fd5b670de0b6b3a764000082610cb29190611348565b6002819055507f595a30f13a69b616c4d568e2a2b7875fdfe86e4300a049953c76ee278f8f3f1082604051610ce79190611238565b60405180910390a160019050919050565b60008060009054906101000a900473ffffffffffffffffffffffffffffffffffffffff169050816000806101000a81548173ffffffffffffffffffffffffffffffffffffffff021916908373ffffffffffffffffffffffffffffffffffffffff1602179055508173ffffffffffffffffffffffffffffffffffffffff168173ffffffffffffffffffffffffffffffffffffffff167f8be0079c531659141344cd1fd0a4f28419497f9722a3daafe3b4186f6b6457e060405160405180910390a35050565b600081359050610dcb81611782565b92915050565b600081519050610de081611799565b92915050565b600081359050610df5816117b0565b92915050565b600060208284031215610e0d57600080fd5b6000610e1b84828501610dbc565b91505092915050565b600060208284031215610e3657600080fd5b6000610e4484828501610dd1565b91505092915050565b600060208284031215610e5f57600080fd5b6000610e6d84828501610de6565b91505092915050565b610e7f8161141e565b82525050565b610e8e816113d6565b82525050565b610e9d816113e8565b82525050565b6000610eb0601b836112b0565b9150610ebb826114b2565b602082019050919050565b6000610ed36026836112b0565b9150610ede826114db565b604082019050919050565b6000610ef6601d836112b0565b9150610f018261152a565b602082019050919050565b6000610f19601f836112b0565b9150610f2482611553565b602082019050919050565b6000610f3c6022836112b0565b9150610f478261157c565b604082019050919050565b6000610f5f603b836112b0565b9150610f6a826115cb565b604082019050919050565b6000610f82602f836112b0565b9150610f8d8261161a565b604082019050919050565b6000610fa5602d836112b0565b9150610fb082611669565b604082019050919050565b6000610fc86020836112b0565b9150610fd3826116b8565b602082019050919050565b6000610feb6023836112b0565b9150610ff6826116e1565b604082019050919050565b600061100e602b836112b0565b915061101982611730565b604082019050919050565b60006110316000836112a5565b915061103c8261177f565b600082019050919050565b61105081611414565b82525050565b600061106182611024565b9150819050919050565b60006020820190506110806000830184610e85565b92915050565b600060608201905061109b6000830186610e76565b6110a86020830185610e85565b6110b56040830184611047565b949350505050565b60006020820190506110d26000830184610e94565b92915050565b600060208201905081810360008301526110f181610ea3565b9050919050565b6000602082019050818103600083015261111181610ec6565b9050919050565b6000602082019050818103600083015261113181610ee9565b9050919050565b6000602082019050818103600083015261115181610f0c565b9050919050565b6000602082019050818103600083015261117181610f2f565b9050919050565b6000602082019050818103600083015261119181610f52565b9050919050565b600060208201905081810360008301526111b181610f75565b9050919050565b600060208201905081810360008301526111d181610f98565b9050919050565b600060208201905081810360008301526111f181610fbb565b9050919050565b6000602082019050818103600083015261121181610fde565b9050919050565b6000602082019050818103600083015261123181611001565b9050919050565b600060208201905061124d6000830184611047565b92915050565b60006040820190506112686000830185611047565b6112756020830184610e85565b9392505050565b60006040820190506112916000830185611047565b61129e6020830184611047565b9392505050565b600081905092915050565b600082825260208201905092915050565b60006112cc82611414565b91506112d783611414565b9250827fffffffffffffffffffffffffffffffffffffffffffffffffffffffffffffffff0382111561130c5761130b611454565b5b828201905092915050565b600061132282611414565b915061132d83611414565b92508261133d5761133c611483565b5b828204905092915050565b600061135382611414565b915061135e83611414565b9250817fffffffffffffffffffffffffffffffffffffffffffffffffffffffffffffffff048311821515161561139757611396611454565b5b828202905092915050565b60006113ad82611414565b91506113b883611414565b9250828210156113cb576113ca611454565b5b828203905092915050565b60006113e1826113f4565b9050919050565b60008115159050919050565b600073ffffffffffffffffffffffffffffffffffffffff82169050919050565b6000819050919050565b600061142982611430565b9050919050565b600061143b82611442565b9050919050565b600061144d826113f4565b9050919050565b7f4e487b7100000000000000000000000000000000000000000000000000000000600052601160045260246000fd5b7f4e487b7100000000000000000000000000000000000000000000000000000000600052601260045260246000fd5b7f4572726f723a20546f6b656e2073616c652068617320656e6465640000000000600082015250565b7f4f776e61626c653a206e6577206f776e657220697320746865207a65726f206160008201527f6464726573730000000000000000000000000000000000000000000000000000602082015250565b7f4572726f723a204661696c656420746f2073656e6420584f5843415348000000600082015250565b7f4572726f723a20546f6b656e2073616c6520616c726561647920626567756e00600082015250565b7f4572726f723a2052617465206d7573742062652067726561746572207468616e60008201527f2030000000000000000000000000000000000000000000000000000000000000602082015250565b7f4572726f723a20546f6b656e2073616c6520686173206265656e2066696e616c60008201527f697a656420616e642063616e6e6f7420626520657874656e6465640000000000602082015250565b7f4572726f723a204f6e6c79206f7267616e697a6174696f6e2063616e2063616c60008201527f6c20746869732066756e6374696f6e0000000000000000000000000000000000602082015250565b7f4572726f723a204661696c656420746f2073656e6420424e4220746f2070757260008201527f636861736520584f584341534800000000000000000000000000000000000000602082015250565b7f4f776e61626c653a2063616c6c6572206973206e6f7420746865206f776e6572600082015250565b7f4572726f723a20546f6b656e2073616c6520686173206e6f7420626567756e2060008201527f7965740000000000000000000000000000000000000000000000000000000000602082015250565b7f4572726f723a20546f6b656e2073616c652063616e6e6f742062652066696e6160008201527f6c697a6564207477696365000000000000000000000000000000000000000000602082015250565b50565b61178b816113d6565b811461179657600080fd5b50565b6117a2816113e8565b81146117ad57600080fd5b50565b6117b981611414565b81146117c457600080fd5b5056fea2646970667358221220623e2caa2f3e3815ae862ec1f85b1675352679802371e424f5fc02768e72b1b664736f6c63430008040033",
  "immutableReferences": {},
  "source": "pragma solidity >=0.4.2 <0.9.0;\n\nimport \"@openzeppelin/contracts/utils/Context.sol\";\nimport \"@openzeppelin/contracts/access/Ownable.sol\";\nimport \"@openzeppelin/contracts/token/ERC20/IERC20.sol\";\n\ncontract TokenSale is Context, Ownable {\n  address payable _withdrawalWallet;\n  uint256 _rate;\n  uint256 _startTime;\n  uint256 _endTime;\n  bool _initialized = false;\n  bool _finalized = false;\n  IERC20 _tradeToken;\n\n  modifier onlyWithdrawalAddress() {\n    require(\n      _msgSender() == _withdrawalWallet,\n      \"Error: Only organization can call this function\"\n    );\n    _;\n  }\n\n  event RateChanged(uint256 newRate);\n  event TokenSaleStarted(uint256 startTime, uint256 endTime);\n  event TokenSaleExtended(uint256 newEndTime);\n  event TokenSaleFinalized(uint256 finalTime);\n  event TokenSold(uint256 amount, address buyer);\n\n  constructor(\n    address withdrawalWallet_,\n    uint256 rate_,\n    address token_\n  ) public Ownable() {\n    _withdrawalWallet = payable(withdrawalWallet_);\n    _rate = rate_;\n    _tradeToken = IERC20(token_);\n  }\n\n  function _setRate(uint256 rate_) private returns (bool) {\n    require(rate_ > 0, \"Error: Rate must be greater than 0\");\n    _rate = rate_ * 1 ether;\n    emit RateChanged(rate_);\n    return true;\n  }\n\n  function setRate(uint256 rate_)\n    external\n    onlyWithdrawalAddress\n    returns (bool)\n  {\n    return _setRate(rate_);\n  }\n\n  function beginTokenSale(uint256 daysFromStart)\n    external\n    onlyWithdrawalAddress\n    returns (bool)\n  {\n    require(!_initialized, \"Error: Token sale already begun\");\n    _startTime = block.timestamp;\n    _endTime = block.timestamp + (daysFromStart * 1 days);\n    _initialized = true;\n    emit TokenSaleStarted(_startTime, _endTime);\n  }\n\n  function extendTokenSale(uint256 extension)\n    external\n    onlyWithdrawalAddress\n    returns (bool)\n  {\n    require(\n      !_finalized,\n      \"Error: Token sale has been finalized and cannot be extended\"\n    );\n    _endTime = block.timestamp + (extension * 1 days);\n    emit TokenSaleExtended(_endTime);\n    return true;\n  }\n\n  function finalizeTokenSale() external onlyWithdrawalAddress returns (bool) {\n    require(!_finalized, \"Error: Token sale cannot be finalized twice\");\n    _finalized = true;\n    emit TokenSaleFinalized(block.timestamp);\n    return true;\n  }\n\n  function getRemainingDays() public view returns (uint256) {\n    uint256 currentTimestamp = block.timestamp;\n\n    if (_endTime > currentTimestamp) return _endTime - currentTimestamp;\n\n    return 0;\n  }\n\n  function buy(uint256 amount) external returns (bool bought) {\n    require(\n      block.timestamp >= _startTime,\n      \"Error: Token sale has not begun yet\"\n    );\n    require(block.timestamp < _endTime, \"Error: Token sale has ended\");\n    (bool success, ) = _withdrawalWallet.call{value: amount}(\"\");\n    require(success, \"Error: Failed to send BNB to purchase XOXCASH\");\n    bool sold = _tradeToken.transferFrom(\n      _withdrawalWallet,\n      msg.sender,\n      amount / _rate\n    );\n    require(sold, \"Error: Failed to send XOXCASH\");\n    emit TokenSold(amount / _rate, msg.sender);\n  }\n\n  function setWithdrawalWallet(address withdrawalWallet_)\n    external\n    onlyOwner\n    returns (bool)\n  {\n    _withdrawalWallet = payable(withdrawalWallet_);\n    return true;\n  }\n\n  function getRate() external view returns (uint256) {\n    return _rate;\n  }\n}\n",
  "sourcePath": "/home/kingsley/Code-Projects/xoxcashICO/contracts/TokenSale.sol",
  "compiler": {
    "name": "solc",
    "version": "0.8.4+commit.c7e474f2.Emscripten.clang"
  },
  "schemaVersion": "3.4.1",
  "updatedAt": "2021-08-28T12:26:38.701Z",
  "networkType": "ethereum",
  "devdoc": {
    "kind": "dev",
    "methods": {
      "owner()": {
        "details": "Returns the address of the current owner."
      },
      "renounceOwnership()": {
        "details": "Leaves the contract without owner. It will not be possible to call `onlyOwner` functions anymore. Can only be called by the current owner. NOTE: Renouncing ownership will leave the contract without an owner, thereby removing any functionality that is only available to the owner."
      },
      "transferOwnership(address)": {
        "details": "Transfers ownership of the contract to a new account (`newOwner`). Can only be called by the current owner."
      }
    },
    "version": 1
  },
  "userdoc": {
    "kind": "user",
    "methods": {},
    "version": 1
  }
}