{
  "contractName": "TokenSale",
  "abi": [
    {
      "inputs": [
        {
          "internalType": "address",
          "name": "withdrawalWallet_",
          "type": "address"
        },
        {
          "internalType": "uint256",
          "name": "rate_",
          "type": "uint256"
        },
        {
          "internalType": "address",
          "name": "token_",
          "type": "address"
        }
      ],
      "stateMutability": "nonpayable",
      "type": "constructor"
    },
    {
      "anonymous": false,
      "inputs": [
        {
          "indexed": false,
          "internalType": "address",
          "name": "recipient",
          "type": "address"
        },
        {
          "indexed": false,
          "internalType": "uint256",
          "name": "amount",
          "type": "uint256"
        }
      ],
      "name": "BNBWithdrawn",
      "type": "event"
    },
    {
      "anonymous": false,
      "inputs": [
        {
          "indexed": true,
          "internalType": "address",
          "name": "previousOwner",
          "type": "address"
        },
        {
          "indexed": true,
          "internalType": "address",
          "name": "newOwner",
          "type": "address"
        }
      ],
      "name": "OwnershipTransferred",
      "type": "event"
    },
    {
      "anonymous": false,
      "inputs": [
        {
          "indexed": false,
          "internalType": "uint256",
          "name": "newRate",
          "type": "uint256"
        }
      ],
      "name": "RateChanged",
      "type": "event"
    },
    {
      "anonymous": false,
      "inputs": [
        {
          "indexed": false,
          "internalType": "uint256",
          "name": "newEndTime",
          "type": "uint256"
        }
      ],
      "name": "TokenSaleExtended",
      "type": "event"
    },
    {
      "anonymous": false,
      "inputs": [
        {
          "indexed": false,
          "internalType": "uint256",
          "name": "finalTime",
          "type": "uint256"
        }
      ],
      "name": "TokenSaleFinalized",
      "type": "event"
    },
    {
      "anonymous": false,
      "inputs": [
        {
          "indexed": false,
          "internalType": "uint256",
          "name": "startTime",
          "type": "uint256"
        },
        {
          "indexed": false,
          "internalType": "uint256",
          "name": "endTime",
          "type": "uint256"
        }
      ],
      "name": "TokenSaleStarted",
      "type": "event"
    },
    {
      "anonymous": false,
      "inputs": [
        {
          "indexed": false,
          "internalType": "uint256",
          "name": "amount",
          "type": "uint256"
        },
        {
          "indexed": false,
          "internalType": "address",
          "name": "buyer",
          "type": "address"
        }
      ],
      "name": "TokenSold",
      "type": "event"
    },
    {
      "inputs": [],
      "name": "owner",
      "outputs": [
        {
          "internalType": "address",
          "name": "",
          "type": "address"
        }
      ],
      "stateMutability": "view",
      "type": "function",
      "constant": true
    },
    {
      "inputs": [],
      "name": "renounceOwnership",
      "outputs": [],
      "stateMutability": "nonpayable",
      "type": "function"
    },
    {
      "inputs": [
        {
          "internalType": "address",
          "name": "newOwner",
          "type": "address"
        }
      ],
      "name": "transferOwnership",
      "outputs": [],
      "stateMutability": "nonpayable",
      "type": "function"
    },
    {
      "stateMutability": "payable",
      "type": "receive",
      "payable": true
    },
    {
      "inputs": [
        {
          "internalType": "uint256",
          "name": "rate_",
          "type": "uint256"
        }
      ],
      "name": "setRate",
      "outputs": [
        {
          "internalType": "bool",
          "name": "",
          "type": "bool"
        }
      ],
      "stateMutability": "nonpayable",
      "type": "function"
    },
    {
      "inputs": [
        {
          "internalType": "uint256",
          "name": "daysFromStart",
          "type": "uint256"
        }
      ],
      "name": "beginTokenSale",
      "outputs": [
        {
          "internalType": "bool",
          "name": "",
          "type": "bool"
        }
      ],
      "stateMutability": "nonpayable",
      "type": "function"
    },
    {
      "inputs": [
        {
          "internalType": "uint256",
          "name": "extension",
          "type": "uint256"
        }
      ],
      "name": "extendTokenSale",
      "outputs": [
        {
          "internalType": "bool",
          "name": "",
          "type": "bool"
        }
      ],
      "stateMutability": "nonpayable",
      "type": "function"
    },
    {
      "inputs": [],
      "name": "finalizeTokenSale",
      "outputs": [
        {
          "internalType": "bool",
          "name": "",
          "type": "bool"
        }
      ],
      "stateMutability": "nonpayable",
      "type": "function"
    },
    {
      "inputs": [],
      "name": "getRemainingDays",
      "outputs": [
        {
          "internalType": "uint256",
          "name": "",
          "type": "uint256"
        }
      ],
      "stateMutability": "view",
      "type": "function",
      "constant": true
    },
    {
      "inputs": [],
      "name": "buyXOX",
      "outputs": [],
      "stateMutability": "payable",
      "type": "function",
      "payable": true
    },
    {
      "inputs": [
        {
          "internalType": "address",
          "name": "withdrawalWallet_",
          "type": "address"
        }
      ],
      "name": "setWithdrawalWallet",
      "outputs": [
        {
          "internalType": "bool",
          "name": "",
          "type": "bool"
        }
      ],
      "stateMutability": "nonpayable",
      "type": "function"
    },
    {
      "inputs": [],
      "name": "getRate",
      "outputs": [
        {
          "internalType": "uint256",
          "name": "",
          "type": "uint256"
        }
      ],
      "stateMutability": "view",
      "type": "function",
      "constant": true
    },
    {
      "inputs": [],
      "name": "getStartTime",
      "outputs": [
        {
          "internalType": "uint256",
          "name": "",
          "type": "uint256"
        }
      ],
      "stateMutability": "view",
      "type": "function",
      "constant": true
    },
    {
      "inputs": [],
      "name": "getEndTime",
      "outputs": [
        {
          "internalType": "uint256",
          "name": "",
          "type": "uint256"
        }
      ],
      "stateMutability": "view",
      "type": "function",
      "constant": true
    },
    {
      "inputs": [],
      "name": "withdrawBNB",
      "outputs": [
        {
          "internalType": "bool",
          "name": "",
          "type": "bool"
        }
      ],
      "stateMutability": "nonpayable",
      "type": "function"
    }
  ],
  "bytecode": "0x60806040526000600560006101000a81548160ff0219169083151502179055506000600560016101000a81548160ff0219169083151502179055503480156200004757600080fd5b5060405162001fad38038062001fad83398181016040528101906200006d919062000219565b6200008d620000816200011f60201b60201c565b6200012760201b60201c565b82600160006101000a81548173ffffffffffffffffffffffffffffffffffffffff021916908373ffffffffffffffffffffffffffffffffffffffff1602179055508160028190555080600560026101000a81548173ffffffffffffffffffffffffffffffffffffffff021916908373ffffffffffffffffffffffffffffffffffffffff160217905550505050620002e1565b600033905090565b60008060009054906101000a900473ffffffffffffffffffffffffffffffffffffffff169050816000806101000a81548173ffffffffffffffffffffffffffffffffffffffff021916908373ffffffffffffffffffffffffffffffffffffffff1602179055508173ffffffffffffffffffffffffffffffffffffffff168173ffffffffffffffffffffffffffffffffffffffff167f8be0079c531659141344cd1fd0a4f28419497f9722a3daafe3b4186f6b6457e060405160405180910390a35050565b600081519050620001fc81620002ad565b92915050565b6000815190506200021381620002c7565b92915050565b6000806000606084860312156200022f57600080fd5b60006200023f86828701620001eb565b9350506020620002528682870162000202565b92505060406200026586828701620001eb565b9150509250925092565b60006200027c8262000283565b9050919050565b600073ffffffffffffffffffffffffffffffffffffffff82169050919050565b6000819050919050565b620002b8816200026f565b8114620002c457600080fd5b50565b620002d281620002a3565b8114620002de57600080fd5b50565b611cbc80620002f16000396000f3fe6080604052600436106100e05760003560e01c8063715018a61161007f5780638b3c1718116100595780638b3c1718146102a35780638da5cb5b146102e0578063c828371e1461030b578063f2fde38b14610336576100ef565b8063715018a61461022457806375796f761461023b5780637693488b14610278576100ef565b806334fcf437116100bb57806334fcf43714610187578063439f5ac2146101c457806345ba0a9b146101ef578063679aefce146101f9576100ef565b80620c7019146100f457806310efa98e1461011f5780631d111d131461015c576100ef565b366100ef576100ed61035f565b005b600080fd5b34801561010057600080fd5b50610109610644565b60405161011691906116dc565b60405180910390f35b34801561012b57600080fd5b50610146600480360381019061014191906112a2565b610673565b6040516101539190611541565b60405180910390f35b34801561016857600080fd5b506101716107be565b60405161017e9190611541565b60405180910390f35b34801561019357600080fd5b506101ae60048036038101906101a991906112a2565b610902565b6040516101bb9190611541565b60405180910390f35b3480156101d057600080fd5b506101d96109ab565b6040516101e691906116dc565b60405180910390f35b6101f761035f565b005b34801561020557600080fd5b5061020e6109b5565b60405161021b91906116dc565b60405180910390f35b34801561023057600080fd5b506102396109bf565b005b34801561024757600080fd5b50610262600480360381019061025d9190611250565b610a47565b60405161026f9190611541565b60405180910390f35b34801561028457600080fd5b5061028d610b0f565b60405161029a9190611541565b60405180910390f35b3480156102af57600080fd5b506102ca60048036038101906102c591906112a2565b610e0b565b6040516102d79190611541565b60405180910390f35b3480156102ec57600080fd5b506102f5610f78565b60405161030291906114d4565b60405180910390f35b34801561031757600080fd5b50610320610fa1565b60405161032d91906116dc565b60405180910390f35b34801561034257600080fd5b5061035d60048036038101906103589190611250565b610fab565b005b6003544210156103a4576040517f08c379a000000000000000000000000000000000000000000000000000000000815260040161039b9061165c565b60405180910390fd5b60045442106103e8576040517f08c379a00000000000000000000000000000000000000000000000000000000081526004016103df9061155c565b60405180910390fd5b6000670de0b6b3a7640000346103fe91906117e1565b90506002548161040e91906117b0565b600560029054906101000a900473ffffffffffffffffffffffffffffffffffffffff1673ffffffffffffffffffffffffffffffffffffffff166370a08231306040518263ffffffff1660e01b815260040161046991906114d4565b60206040518083038186803b15801561048157600080fd5b505afa158015610495573d6000803e3d6000fd5b505050506040513d601f19601f820116820180604052508101906104b991906112cb565b10156104fa576040517f08c379a00000000000000000000000000000000000000000000000000000000081526004016104f19061167c565b60405180910390fd5b6000600560029054906101000a900473ffffffffffffffffffffffffffffffffffffffff1673ffffffffffffffffffffffffffffffffffffffff1663a9059cbb336002548561054991906117b0565b6040518363ffffffff1660e01b8152600401610566929190611518565b602060405180830381600087803b15801561058057600080fd5b505af1158015610594573d6000803e3d6000fd5b505050506040513d601f19601f820116820180604052508101906105b89190611279565b9050806105fa576040517f08c379a00000000000000000000000000000000000000000000000000000000081526004016105f19061159c565b60405180910390fd5b7f751f224aea8528cb3199d1615151d4b851c884ad39e72c306356520ec6d2cf956002548361062991906117b0565b336040516106389291906116f7565b60405180910390a15050565b60008042905080600454111561066a5780600454610662919061183b565b915050610670565b60009150505b90565b6000600160009054906101000a900473ffffffffffffffffffffffffffffffffffffffff1673ffffffffffffffffffffffffffffffffffffffff166106b66110a3565b73ffffffffffffffffffffffffffffffffffffffff161461070c576040517f08c379a00000000000000000000000000000000000000000000000000000000081526004016107039061161c565b60405180910390fd5b600560019054906101000a900460ff161561075c576040517f08c379a0000000000000000000000000000000000000000000000000000000008152600401610753906115fc565b60405180910390fd5b620151808261076b91906117e1565b42610776919061175a565b6004819055507f057ef55123d60d20f8e2ebda78fcfd24dfcad0647ca443a91e71941deb00bc926004546040516107ad91906116dc565b60405180910390a160019050919050565b6000600160009054906101000a900473ffffffffffffffffffffffffffffffffffffffff1673ffffffffffffffffffffffffffffffffffffffff166108016110a3565b73ffffffffffffffffffffffffffffffffffffffff1614610857576040517f08c379a000000000000000000000000000000000000000000000000000000000815260040161084e9061161c565b60405180910390fd5b6000479050600160009054906101000a900473ffffffffffffffffffffffffffffffffffffffff1673ffffffffffffffffffffffffffffffffffffffff166108fc829081150290604051600060405180830381858888f193505050501580156108c4573d6000803e3d6000fd5b507f977cffdd1e736a78cafc6845d6dca2d64c79fb1f650a8bdec1a9b5046ea47d4533826040516108f6929190611518565b60405180910390a15090565b6000600160009054906101000a900473ffffffffffffffffffffffffffffffffffffffff1673ffffffffffffffffffffffffffffffffffffffff166109456110a3565b73ffffffffffffffffffffffffffffffffffffffff161461099b576040517f08c379a00000000000000000000000000000000000000000000000000000000081526004016109929061161c565b60405180910390fd5b6109a4826110ab565b9050919050565b6000600454905090565b6000600254905090565b6109c76110a3565b73ffffffffffffffffffffffffffffffffffffffff166109e5610f78565b73ffffffffffffffffffffffffffffffffffffffff1614610a3b576040517f08c379a0000000000000000000000000000000000000000000000000000000008152600401610a329061163c565b60405180910390fd5b610a456000611138565b565b6000610a516110a3565b73ffffffffffffffffffffffffffffffffffffffff16610a6f610f78565b73ffffffffffffffffffffffffffffffffffffffff1614610ac5576040517f08c379a0000000000000000000000000000000000000000000000000000000008152600401610abc9061163c565b60405180910390fd5b81600160006101000a81548173ffffffffffffffffffffffffffffffffffffffff021916908373ffffffffffffffffffffffffffffffffffffffff16021790555060019050919050565b6000600160009054906101000a900473ffffffffffffffffffffffffffffffffffffffff1673ffffffffffffffffffffffffffffffffffffffff16610b526110a3565b73ffffffffffffffffffffffffffffffffffffffff1614610ba8576040517f08c379a0000000000000000000000000000000000000000000000000000000008152600401610b9f9061161c565b60405180910390fd5b600560019054906101000a900460ff1615610bf8576040517f08c379a0000000000000000000000000000000000000000000000000000000008152600401610bef906116bc565b60405180910390fd5b600560029054906101000a900473ffffffffffffffffffffffffffffffffffffffff1673ffffffffffffffffffffffffffffffffffffffff1663a9059cbb600160009054906101000a900473ffffffffffffffffffffffffffffffffffffffff16600560029054906101000a900473ffffffffffffffffffffffffffffffffffffffff1673ffffffffffffffffffffffffffffffffffffffff166370a08231306040518263ffffffff1660e01b8152600401610cb491906114d4565b60206040518083038186803b158015610ccc57600080fd5b505afa158015610ce0573d6000803e3d6000fd5b505050506040513d601f19601f82011682018060405250810190610d0491906112cb565b6040518363ffffffff1660e01b8152600401610d219291906114ef565b602060405180830381600087803b158015610d3b57600080fd5b505af1158015610d4f573d6000803e3d6000fd5b505050506040513d601f19601f82011682018060405250810190610d739190611279565b610db2576040517f08c379a0000000000000000000000000000000000000000000000000000000008152600401610da99061169c565b60405180910390fd5b6001600560016101000a81548160ff0219169083151502179055507f3d4bd2c362de1fb2fb5d7fbe732e27aba89ba2c9d8acd44346bf30b520eb0da242604051610dfc91906116dc565b60405180910390a16001905090565b6000600160009054906101000a900473ffffffffffffffffffffffffffffffffffffffff1673ffffffffffffffffffffffffffffffffffffffff16610e4e6110a3565b73ffffffffffffffffffffffffffffffffffffffff1614610ea4576040517f08c379a0000000000000000000000000000000000000000000000000000000008152600401610e9b9061161c565b60405180910390fd5b600560009054906101000a900460ff1615610ef4576040517f08c379a0000000000000000000000000000000000000000000000000000000008152600401610eeb906115bc565b60405180910390fd5b426003819055506201518082610f0a91906117e1565b42610f15919061175a565b6004819055506001600560006101000a81548160ff0219169083151502179055507fe7a4dc9c36cc4f7a8a5166f25ebecb1543220b790b75b19ba25421da6b02cb32600354600454604051610f6b929190611720565b60405180910390a1919050565b60008060009054906101000a900473ffffffffffffffffffffffffffffffffffffffff16905090565b6000600354905090565b610fb36110a3565b73ffffffffffffffffffffffffffffffffffffffff16610fd1610f78565b73ffffffffffffffffffffffffffffffffffffffff1614611027576040517f08c379a000000000000000000000000000000000000000000000000000000000815260040161101e9061163c565b60405180910390fd5b600073ffffffffffffffffffffffffffffffffffffffff168173ffffffffffffffffffffffffffffffffffffffff161415611097576040517f08c379a000000000000000000000000000000000000000000000000000000000815260040161108e9061157c565b60405180910390fd5b6110a081611138565b50565b600033905090565b60008082116110ef576040517f08c379a00000000000000000000000000000000000000000000000000000000081526004016110e6906115dc565b60405180910390fd5b816002819055507f595a30f13a69b616c4d568e2a2b7875fdfe86e4300a049953c76ee278f8f3f1060025460405161112791906116dc565b60405180910390a160019050919050565b60008060009054906101000a900473ffffffffffffffffffffffffffffffffffffffff169050816000806101000a81548173ffffffffffffffffffffffffffffffffffffffff021916908373ffffffffffffffffffffffffffffffffffffffff1602179055508173ffffffffffffffffffffffffffffffffffffffff168173ffffffffffffffffffffffffffffffffffffffff167f8be0079c531659141344cd1fd0a4f28419497f9722a3daafe3b4186f6b6457e060405160405180910390a35050565b60008135905061120b81611c41565b92915050565b60008151905061122081611c58565b92915050565b60008135905061123581611c6f565b92915050565b60008151905061124a81611c6f565b92915050565b60006020828403121561126257600080fd5b6000611270848285016111fc565b91505092915050565b60006020828403121561128b57600080fd5b600061129984828501611211565b91505092915050565b6000602082840312156112b457600080fd5b60006112c284828501611226565b91505092915050565b6000602082840312156112dd57600080fd5b60006112eb8482850161123b565b91505092915050565b6112fd816118b7565b82525050565b61130c8161186f565b82525050565b61131b81611881565b82525050565b600061132e601b83611749565b91506113398261194b565b602082019050919050565b6000611351602683611749565b915061135c82611974565b604082019050919050565b6000611374601d83611749565b915061137f826119c3565b602082019050919050565b6000611397601f83611749565b91506113a2826119ec565b602082019050919050565b60006113ba602283611749565b91506113c582611a15565b604082019050919050565b60006113dd603b83611749565b91506113e882611a64565b604082019050919050565b6000611400602f83611749565b915061140b82611ab3565b604082019050919050565b6000611423602083611749565b915061142e82611b02565b602082019050919050565b6000611446602383611749565b915061145182611b2b565b604082019050919050565b6000611469602083611749565b915061147482611b7a565b602082019050919050565b600061148c602a83611749565b915061149782611ba3565b604082019050919050565b60006114af602b83611749565b91506114ba82611bf2565b604082019050919050565b6114ce816118ad565b82525050565b60006020820190506114e96000830184611303565b92915050565b600060408201905061150460008301856112f4565b61151160208301846114c5565b9392505050565b600060408201905061152d6000830185611303565b61153a60208301846114c5565b9392505050565b60006020820190506115566000830184611312565b92915050565b6000602082019050818103600083015261157581611321565b9050919050565b6000602082019050818103600083015261159581611344565b9050919050565b600060208201905081810360008301526115b581611367565b9050919050565b600060208201905081810360008301526115d58161138a565b9050919050565b600060208201905081810360008301526115f5816113ad565b9050919050565b60006020820190508181036000830152611615816113d0565b9050919050565b60006020820190508181036000830152611635816113f3565b9050919050565b6000602082019050818103600083015261165581611416565b9050919050565b6000602082019050818103600083015261167581611439565b9050919050565b600060208201905081810360008301526116958161145c565b9050919050565b600060208201905081810360008301526116b58161147f565b9050919050565b600060208201905081810360008301526116d5816114a2565b9050919050565b60006020820190506116f160008301846114c5565b92915050565b600060408201905061170c60008301856114c5565b6117196020830184611303565b9392505050565b600060408201905061173560008301856114c5565b61174260208301846114c5565b9392505050565b600082825260208201905092915050565b6000611765826118ad565b9150611770836118ad565b9250827fffffffffffffffffffffffffffffffffffffffffffffffffffffffffffffffff038211156117a5576117a46118ed565b5b828201905092915050565b60006117bb826118ad565b91506117c6836118ad565b9250826117d6576117d561191c565b5b828204905092915050565b60006117ec826118ad565b91506117f7836118ad565b9250817fffffffffffffffffffffffffffffffffffffffffffffffffffffffffffffffff04831182151516156118305761182f6118ed565b5b828202905092915050565b6000611846826118ad565b9150611851836118ad565b925082821015611864576118636118ed565b5b828203905092915050565b600061187a8261188d565b9050919050565b60008115159050919050565b600073ffffffffffffffffffffffffffffffffffffffff82169050919050565b6000819050919050565b60006118c2826118c9565b9050919050565b60006118d4826118db565b9050919050565b60006118e68261188d565b9050919050565b7f4e487b7100000000000000000000000000000000000000000000000000000000600052601160045260246000fd5b7f4e487b7100000000000000000000000000000000000000000000000000000000600052601260045260246000fd5b7f4572726f723a20546f6b656e2073616c652068617320656e6465640000000000600082015250565b7f4f776e61626c653a206e6577206f776e657220697320746865207a65726f206160008201527f6464726573730000000000000000000000000000000000000000000000000000602082015250565b7f4572726f723a204661696c656420746f2073656e6420584f5843415348000000600082015250565b7f4572726f723a20546f6b656e2073616c6520616c726561647920626567756e00600082015250565b7f4572726f723a2052617465206d7573742062652067726561746572207468616e60008201527f2030000000000000000000000000000000000000000000000000000000000000602082015250565b7f4572726f723a20546f6b656e2073616c6520686173206265656e2066696e616c60008201527f697a656420616e642063616e6e6f7420626520657874656e6465640000000000602082015250565b7f4572726f723a204f6e6c79206f7267616e697a6174696f6e2063616e2063616c60008201527f6c20746869732066756e6374696f6e0000000000000000000000000000000000602082015250565b7f4f776e61626c653a2063616c6c6572206973206e6f7420746865206f776e6572600082015250565b7f4572726f723a20546f6b656e2073616c6520686173206e6f7420626567756e2060008201527f7965740000000000000000000000000000000000000000000000000000000000602082015250565b7f4572726f723a204e6f7420656e6f75676820746f6b656e7320746f2073656c6c600082015250565b7f4572726f723a20436f756c64206e6f74207472616e736665722072656d61696e60008201527f696e6720746f6b656e7300000000000000000000000000000000000000000000602082015250565b7f4572726f723a20546f6b656e2073616c652063616e6e6f742062652066696e6160008201527f6c697a6564207477696365000000000000000000000000000000000000000000602082015250565b611c4a8161186f565b8114611c5557600080fd5b50565b611c6181611881565b8114611c6c57600080fd5b50565b611c78816118ad565b8114611c8357600080fd5b5056fea26469706673582212202b328a4bf1c83bd35e96c7fc3356440ba59bd4d5cabd19b0cd13b4a5d675df5a64736f6c63430008040033",
  "immutableReferences": {},
  "source": "pragma solidity >=0.4.2 <0.9.0;\n\nimport \"@openzeppelin/contracts/utils/Context.sol\";\nimport \"@openzeppelin/contracts/access/Ownable.sol\";\nimport \"@openzeppelin/contracts/token/ERC20/IERC20.sol\";\n\ncontract TokenSale is Context, Ownable {\n  address payable _withdrawalWallet;\n  uint256 _rate;\n  uint256 _startTime;\n  uint256 _endTime;\n  bool _initialized = false;\n  bool _finalized = false;\n  IERC20 _tradeToken;\n\n  modifier onlyWithdrawalAddress() {\n    require(\n      _msgSender() == _withdrawalWallet,\n      \"Error: Only organization can call this function\"\n    );\n    _;\n  }\n\n  event RateChanged(uint256 newRate);\n  event TokenSaleStarted(uint256 startTime, uint256 endTime);\n  event TokenSaleExtended(uint256 newEndTime);\n  event TokenSaleFinalized(uint256 finalTime);\n  event TokenSold(uint256 amount, address buyer);\n  event BNBWithdrawn(address recipient, uint256 amount);\n\n  constructor(\n    address withdrawalWallet_,\n    uint256 rate_,\n    address token_\n  ) public Ownable() {\n    _withdrawalWallet = payable(withdrawalWallet_);\n    _rate = rate_;\n    _tradeToken = IERC20(token_);\n  }\n\n  function _setRate(uint256 rate_) private returns (bool) {\n    require(rate_ > 0, \"Error: Rate must be greater than 0\");\n    _rate = rate_;\n    emit RateChanged(_rate);\n    return true;\n  }\n\n  function setRate(uint256 rate_)\n    external\n    onlyWithdrawalAddress\n    returns (bool)\n  {\n    return _setRate(rate_);\n  }\n\n  function beginTokenSale(uint256 daysFromStart)\n    external\n    onlyWithdrawalAddress\n    returns (bool)\n  {\n    require(!_initialized, \"Error: Token sale already begun\");\n    _startTime = block.timestamp;\n    _endTime = block.timestamp + (daysFromStart * 1 days);\n    _initialized = true;\n    emit TokenSaleStarted(_startTime, _endTime);\n  }\n\n  function extendTokenSale(uint256 extension)\n    external\n    onlyWithdrawalAddress\n    returns (bool)\n  {\n    require(\n      !_finalized,\n      \"Error: Token sale has been finalized and cannot be extended\"\n    );\n    _endTime = block.timestamp + (extension * 1 days);\n    emit TokenSaleExtended(_endTime);\n    return true;\n  }\n\n  function finalizeTokenSale() external onlyWithdrawalAddress returns (bool) {\n    require(!_finalized, \"Error: Token sale cannot be finalized twice\");\n    require(\n      _tradeToken.transfer(\n        _withdrawalWallet,\n        _tradeToken.balanceOf(address(this))\n      ),\n      \"Error: Could not transfer remaining tokens\"\n    );\n    _finalized = true;\n    emit TokenSaleFinalized(block.timestamp);\n    return true;\n  }\n\n  function getRemainingDays() public view returns (uint256) {\n    uint256 currentTimestamp = block.timestamp;\n\n    if (_endTime > currentTimestamp) return _endTime - currentTimestamp;\n\n    return 0;\n  }\n\n  function buyXOX() public payable {\n    require(\n      block.timestamp >= _startTime,\n      \"Error: Token sale has not begun yet\"\n    );\n    require(block.timestamp < _endTime, \"Error: Token sale has ended\");\n\n    uint256 _valueAsWei = msg.value * 10**18;\n\n    require(\n      _tradeToken.balanceOf(address(this)) >= (_valueAsWei / _rate),\n      \"Error: Not enough tokens to sell\"\n    );\n    bool sold = _tradeToken.transfer(msg.sender, _valueAsWei / _rate);\n    require(sold, \"Error: Failed to send XOXCASH\");\n    emit TokenSold(_valueAsWei / _rate, msg.sender);\n  }\n\n  function setWithdrawalWallet(address withdrawalWallet_)\n    external\n    onlyOwner\n    returns (bool)\n  {\n    _withdrawalWallet = payable(withdrawalWallet_);\n    return true;\n  }\n\n  function getRate() external view returns (uint256) {\n    return _rate;\n  }\n\n  function getStartTime() external view returns (uint256) {\n    return _startTime;\n  }\n\n  function getEndTime() external view returns (uint256) {\n    return _endTime;\n  }\n\n  function withdrawBNB() public onlyWithdrawalAddress returns (bool) {\n    uint256 bal = address(this).balance;\n    _withdrawalWallet.transfer(bal);\n    emit BNBWithdrawn(msg.sender, bal);\n  }\n\n  receive() external payable {\n    buyXOX();\n  }\n}\n",
  "sourcePath": "/home/kingsley/Code-Projects/xoxcashICO/contracts/TokenSale.sol",
  "compiler": {
    "name": "solc",
    "version": "0.8.4+commit.c7e474f2.Emscripten.clang"
  },
  "schemaVersion": "3.4.1",
  "updatedAt": "2021-08-28T20:00:37.312Z",
  "networkType": "ethereum",
  "devdoc": {
    "kind": "dev",
    "methods": {
      "owner()": {
        "details": "Returns the address of the current owner."
      },
      "renounceOwnership()": {
        "details": "Leaves the contract without owner. It will not be possible to call `onlyOwner` functions anymore. Can only be called by the current owner. NOTE: Renouncing ownership will leave the contract without an owner, thereby removing any functionality that is only available to the owner."
      },
      "transferOwnership(address)": {
        "details": "Transfers ownership of the contract to a new account (`newOwner`). Can only be called by the current owner."
      }
    },
    "version": 1
  },
  "userdoc": {
    "kind": "user",
    "methods": {},
    "version": 1
  }
}